{
	"contracts/DonateCrypto.sol": {
		"DonateCryto": {
			"abi": [
				{
					"inputs": [
						{
							"internalType": "string",
							"name": "title",
							"type": "string"
						},
						{
							"internalType": "string",
							"name": "description",
							"type": "string"
						},
						{
							"internalType": "string",
							"name": "videoUrl",
							"type": "string"
						},
						{
							"internalType": "string",
							"name": "imageUrl",
							"type": "string"
						}
					],
					"name": "addCampaign",
					"outputs": [],
					"stateMutability": "nonpayable",
					"type": "function"
				},
				{
					"inputs": [
						{
							"internalType": "uint256",
							"name": "",
							"type": "uint256"
						}
					],
					"name": "campaigns",
					"outputs": [
						{
							"internalType": "address",
							"name": "author",
							"type": "address"
						},
						{
							"internalType": "string",
							"name": "title",
							"type": "string"
						},
						{
							"internalType": "string",
							"name": "description",
							"type": "string"
						},
						{
							"internalType": "string",
							"name": "videoUrl",
							"type": "string"
						},
						{
							"internalType": "string",
							"name": "imageUrl",
							"type": "string"
						},
						{
							"internalType": "uint256",
							"name": "balance",
							"type": "uint256"
						},
						{
							"internalType": "bool",
							"name": "active",
							"type": "bool"
						}
					],
					"stateMutability": "view",
					"type": "function"
				},
				{
					"inputs": [
						{
							"internalType": "uint256",
							"name": "id",
							"type": "uint256"
						}
					],
					"name": "donate",
					"outputs": [],
					"stateMutability": "payable",
					"type": "function"
				},
				{
					"inputs": [],
					"name": "fee",
					"outputs": [
						{
							"internalType": "uint256",
							"name": "",
							"type": "uint256"
						}
					],
					"stateMutability": "view",
					"type": "function"
				},
				{
					"inputs": [],
					"name": "nextId",
					"outputs": [
						{
							"internalType": "uint256",
							"name": "",
							"type": "uint256"
						}
					],
					"stateMutability": "view",
					"type": "function"
				},
				{
					"inputs": [
						{
							"internalType": "uint256",
							"name": "id",
							"type": "uint256"
						}
					],
					"name": "withdraw",
					"outputs": [],
					"stateMutability": "nonpayable",
					"type": "function"
				}
			],
			"devdoc": {
				"kind": "dev",
				"methods": {},
				"version": 1
			},
			"evm": {
				"assembly": "    /* \"contracts/DonateCrypto.sol\":236:1642  contract DonateCryto {... */\n  mstore(0x40, 0x80)\n    /* \"contracts/DonateCrypto.sol\":285:288  100 */\n  0x64\n    /* \"contracts/DonateCrypto.sol\":264:288  uint256 public fee = 100 */\n  0x00\n  sstore\n    /* \"contracts/DonateCrypto.sol\":319:320  0 */\n  0x00\n    /* \"contracts/DonateCrypto.sol\":295:320  uint256 public nextId = 0 */\n  0x01\n  sstore\n    /* \"contracts/DonateCrypto.sol\":236:1642  contract DonateCryto {... */\n  callvalue\n  dup1\n  iszero\n  tag_1\n  jumpi\n  0x00\n  dup1\n  revert\ntag_1:\n  pop\n  dataSize(sub_0)\n  dup1\n  dataOffset(sub_0)\n  0x00\n  codecopy\n  0x00\n  return\nstop\n\nsub_0: assembly {\n        /* \"contracts/DonateCrypto.sol\":236:1642  contract DonateCryto {... */\n      mstore(0x40, 0x80)\n      jumpi(tag_1, lt(calldatasize, 0x04))\n      shr(0xe0, calldataload(0x00))\n      dup1\n      0x141961bc\n      eq\n      tag_2\n      jumpi\n      dup1\n      0x2e1a7d4d\n      eq\n      tag_3\n      jumpi\n      dup1\n      0x61b8ce8c\n      eq\n      tag_4\n      jumpi\n      dup1\n      0xddca3f43\n      eq\n      tag_5\n      jumpi\n      dup1\n      0xec671486\n      eq\n      tag_6\n      jumpi\n      dup1\n      0xf14faf6f\n      eq\n      tag_7\n      jumpi\n    tag_1:\n      0x00\n      dup1\n      revert\n        /* \"contracts/DonateCrypto.sol\":329:375  mapping (uint256 => Campaign) public campaigns */\n    tag_2:\n      callvalue\n      dup1\n      iszero\n      tag_8\n      jumpi\n      0x00\n      dup1\n      revert\n    tag_8:\n      pop\n      tag_9\n      0x04\n      dup1\n      calldatasize\n      sub\n      dup2\n      add\n      swap1\n      tag_10\n      swap2\n      swap1\n      tag_11\n      jump\t// in\n    tag_10:\n      tag_12\n      jump\t// in\n    tag_9:\n      mload(0x40)\n      tag_13\n      swap8\n      swap7\n      swap6\n      swap5\n      swap4\n      swap3\n      swap2\n      swap1\n      tag_14\n      jump\t// in\n    tag_13:\n      mload(0x40)\n      dup1\n      swap2\n      sub\n      swap1\n      return\n        /* \"contracts/DonateCrypto.sol\":1137:1639  function withdraw(uint256 id) public {... */\n    tag_3:\n      callvalue\n      dup1\n      iszero\n      tag_15\n      jumpi\n      0x00\n      dup1\n      revert\n    tag_15:\n      pop\n      tag_16\n      0x04\n      dup1\n      calldatasize\n      sub\n      dup2\n      add\n      swap1\n      tag_17\n      swap2\n      swap1\n      tag_11\n      jump\t// in\n    tag_17:\n      tag_18\n      jump\t// in\n    tag_16:\n      stop\n        /* \"contracts/DonateCrypto.sol\":295:320  uint256 public nextId = 0 */\n    tag_4:\n      callvalue\n      dup1\n      iszero\n      tag_19\n      jumpi\n      0x00\n      dup1\n      revert\n    tag_19:\n      pop\n      tag_20\n      tag_21\n      jump\t// in\n    tag_20:\n      mload(0x40)\n      tag_22\n      swap2\n      swap1\n      tag_23\n      jump\t// in\n    tag_22:\n      mload(0x40)\n      dup1\n      swap2\n      sub\n      swap1\n      return\n        /* \"contracts/DonateCrypto.sol\":264:288  uint256 public fee = 100 */\n    tag_5:\n      callvalue\n      dup1\n      iszero\n      tag_24\n      jumpi\n      0x00\n      dup1\n      revert\n    tag_24:\n      pop\n      tag_25\n      tag_26\n      jump\t// in\n    tag_25:\n      mload(0x40)\n      tag_27\n      swap2\n      swap1\n      tag_23\n      jump\t// in\n    tag_27:\n      mload(0x40)\n      dup1\n      swap2\n      sub\n      swap1\n      return\n        /* \"contracts/DonateCrypto.sol\":384:871  function addCampaign(string calldata title, string calldata description, string calldata videoUrl, string calldata imageUrl) public {... */\n    tag_6:\n      callvalue\n      dup1\n      iszero\n      tag_28\n      jumpi\n      0x00\n      dup1\n      revert\n    tag_28:\n      pop\n      tag_29\n      0x04\n      dup1\n      calldatasize\n      sub\n      dup2\n      add\n      swap1\n      tag_30\n      swap2\n      swap1\n      tag_31\n      jump\t// in\n    tag_30:\n      tag_32\n      jump\t// in\n    tag_29:\n      stop\n        /* \"contracts/DonateCrypto.sol\":879:1129  function donate(uint256 id) public payable {... */\n    tag_7:\n      tag_33\n      0x04\n      dup1\n      calldatasize\n      sub\n      dup2\n      add\n      swap1\n      tag_34\n      swap2\n      swap1\n      tag_11\n      jump\t// in\n    tag_34:\n      tag_35\n      jump\t// in\n    tag_33:\n      stop\n        /* \"contracts/DonateCrypto.sol\":329:375  mapping (uint256 => Campaign) public campaigns */\n    tag_12:\n      mstore(0x20, 0x02)\n      dup1\n      0x00\n      mstore\n      keccak256(0x00, 0x40)\n      0x00\n      swap2\n      pop\n      swap1\n      pop\n      dup1\n      0x00\n      add\n      0x00\n      swap1\n      sload\n      swap1\n      0x0100\n      exp\n      swap1\n      div\n      0xffffffffffffffffffffffffffffffffffffffff\n      and\n      swap1\n      dup1\n      0x01\n      add\n      dup1\n      sload\n      tag_36\n      swap1\n      tag_37\n      jump\t// in\n    tag_36:\n      dup1\n      0x1f\n      add\n      0x20\n      dup1\n      swap2\n      div\n      mul\n      0x20\n      add\n      mload(0x40)\n      swap1\n      dup2\n      add\n      0x40\n      mstore\n      dup1\n      swap3\n      swap2\n      swap1\n      dup2\n      dup2\n      mstore\n      0x20\n      add\n      dup3\n      dup1\n      sload\n      tag_38\n      swap1\n      tag_37\n      jump\t// in\n    tag_38:\n      dup1\n      iszero\n      tag_39\n      jumpi\n      dup1\n      0x1f\n      lt\n      tag_40\n      jumpi\n      0x0100\n      dup1\n      dup4\n      sload\n      div\n      mul\n      dup4\n      mstore\n      swap2\n      0x20\n      add\n      swap2\n      jump(tag_39)\n    tag_40:\n      dup3\n      add\n      swap2\n      swap1\n      0x00\n      mstore\n      keccak256(0x00, 0x20)\n      swap1\n    tag_41:\n      dup2\n      sload\n      dup2\n      mstore\n      swap1\n      0x01\n      add\n      swap1\n      0x20\n      add\n      dup1\n      dup4\n      gt\n      tag_41\n      jumpi\n      dup3\n      swap1\n      sub\n      0x1f\n      and\n      dup3\n      add\n      swap2\n    tag_39:\n      pop\n      pop\n      pop\n      pop\n      pop\n      swap1\n      dup1\n      0x02\n      add\n      dup1\n      sload\n      tag_42\n      swap1\n      tag_37\n      jump\t// in\n    tag_42:\n      dup1\n      0x1f\n      add\n      0x20\n      dup1\n      swap2\n      div\n      mul\n      0x20\n      add\n      mload(0x40)\n      swap1\n      dup2\n      add\n      0x40\n      mstore\n      dup1\n      swap3\n      swap2\n      swap1\n      dup2\n      dup2\n      mstore\n      0x20\n      add\n      dup3\n      dup1\n      sload\n      tag_43\n      swap1\n      tag_37\n      jump\t// in\n    tag_43:\n      dup1\n      iszero\n      tag_44\n      jumpi\n      dup1\n      0x1f\n      lt\n      tag_45\n      jumpi\n      0x0100\n      dup1\n      dup4\n      sload\n      div\n      mul\n      dup4\n      mstore\n      swap2\n      0x20\n      add\n      swap2\n      jump(tag_44)\n    tag_45:\n      dup3\n      add\n      swap2\n      swap1\n      0x00\n      mstore\n      keccak256(0x00, 0x20)\n      swap1\n    tag_46:\n      dup2\n      sload\n      dup2\n      mstore\n      swap1\n      0x01\n      add\n      swap1\n      0x20\n      add\n      dup1\n      dup4\n      gt\n      tag_46\n      jumpi\n      dup3\n      swap1\n      sub\n      0x1f\n      and\n      dup3\n      add\n      swap2\n    tag_44:\n      pop\n      pop\n      pop\n      pop\n      pop\n      swap1\n      dup1\n      0x03\n      add\n      dup1\n      sload\n      tag_47\n      swap1\n      tag_37\n      jump\t// in\n    tag_47:\n      dup1\n      0x1f\n      add\n      0x20\n      dup1\n      swap2\n      div\n      mul\n      0x20\n      add\n      mload(0x40)\n      swap1\n      dup2\n      add\n      0x40\n      mstore\n      dup1\n      swap3\n      swap2\n      swap1\n      dup2\n      dup2\n      mstore\n      0x20\n      add\n      dup3\n      dup1\n      sload\n      tag_48\n      swap1\n      tag_37\n      jump\t// in\n    tag_48:\n      dup1\n      iszero\n      tag_49\n      jumpi\n      dup1\n      0x1f\n      lt\n      tag_50\n      jumpi\n      0x0100\n      dup1\n      dup4\n      sload\n      div\n      mul\n      dup4\n      mstore\n      swap2\n      0x20\n      add\n      swap2\n      jump(tag_49)\n    tag_50:\n      dup3\n      add\n      swap2\n      swap1\n      0x00\n      mstore\n      keccak256(0x00, 0x20)\n      swap1\n    tag_51:\n      dup2\n      sload\n      dup2\n      mstore\n      swap1\n      0x01\n      add\n      swap1\n      0x20\n      add\n      dup1\n      dup4\n      gt\n      tag_51\n      jumpi\n      dup3\n      swap1\n      sub\n      0x1f\n      and\n      dup3\n      add\n      swap2\n    tag_49:\n      pop\n      pop\n      pop\n      pop\n      pop\n      swap1\n      dup1\n      0x04\n      add\n      dup1\n      sload\n      tag_52\n      swap1\n      tag_37\n      jump\t// in\n    tag_52:\n      dup1\n      0x1f\n      add\n      0x20\n      dup1\n      swap2\n      div\n      mul\n      0x20\n      add\n      mload(0x40)\n      swap1\n      dup2\n      add\n      0x40\n      mstore\n      dup1\n      swap3\n      swap2\n      swap1\n      dup2\n      dup2\n      mstore\n      0x20\n      add\n      dup3\n      dup1\n      sload\n      tag_53\n      swap1\n      tag_37\n      jump\t// in\n    tag_53:\n      dup1\n      iszero\n      tag_54\n      jumpi\n      dup1\n      0x1f\n      lt\n      tag_55\n      jumpi\n      0x0100\n      dup1\n      dup4\n      sload\n      div\n      mul\n      dup4\n      mstore\n      swap2\n      0x20\n      add\n      swap2\n      jump(tag_54)\n    tag_55:\n      dup3\n      add\n      swap2\n      swap1\n      0x00\n      mstore\n      keccak256(0x00, 0x20)\n      swap1\n    tag_56:\n      dup2\n      sload\n      dup2\n      mstore\n      swap1\n      0x01\n      add\n      swap1\n      0x20\n      add\n      dup1\n      dup4\n      gt\n      tag_56\n      jumpi\n      dup3\n      swap1\n      sub\n      0x1f\n      and\n      dup3\n      add\n      swap2\n    tag_54:\n      pop\n      pop\n      pop\n      pop\n      pop\n      swap1\n      dup1\n      0x05\n      add\n      sload\n      swap1\n      dup1\n      0x06\n      add\n      0x00\n      swap1\n      sload\n      swap1\n      0x0100\n      exp\n      swap1\n      div\n      0xff\n      and\n      swap1\n      pop\n      dup8\n      jump\t// out\n        /* \"contracts/DonateCrypto.sol\":1137:1639  function withdraw(uint256 id) public {... */\n    tag_18:\n        /* \"contracts/DonateCrypto.sol\":1185:1209  Campaign memory campaign */\n      0x00\n        /* \"contracts/DonateCrypto.sol\":1212:1221  campaigns */\n      0x02\n        /* \"contracts/DonateCrypto.sol\":1212:1225  campaigns[id] */\n      0x00\n        /* \"contracts/DonateCrypto.sol\":1222:1224  id */\n      dup4\n        /* \"contracts/DonateCrypto.sol\":1212:1225  campaigns[id] */\n      dup2\n      mstore\n      0x20\n      add\n      swap1\n      dup2\n      mstore\n      0x20\n      add\n      0x00\n      keccak256\n        /* \"contracts/DonateCrypto.sol\":1185:1225  Campaign memory campaign = campaigns[id] */\n      mload(0x40)\n      dup1\n      0xe0\n      add\n      0x40\n      mstore\n      swap1\n      dup2\n      0x00\n      dup3\n      add\n      0x00\n      swap1\n      sload\n      swap1\n      0x0100\n      exp\n      swap1\n      div\n      0xffffffffffffffffffffffffffffffffffffffff\n      and\n      0xffffffffffffffffffffffffffffffffffffffff\n      and\n      0xffffffffffffffffffffffffffffffffffffffff\n      and\n      dup2\n      mstore\n      0x20\n      add\n      0x01\n      dup3\n      add\n      dup1\n      sload\n      tag_58\n      swap1\n      tag_37\n      jump\t// in\n    tag_58:\n      dup1\n      0x1f\n      add\n      0x20\n      dup1\n      swap2\n      div\n      mul\n      0x20\n      add\n      mload(0x40)\n      swap1\n      dup2\n      add\n      0x40\n      mstore\n      dup1\n      swap3\n      swap2\n      swap1\n      dup2\n      dup2\n      mstore\n      0x20\n      add\n      dup3\n      dup1\n      sload\n      tag_59\n      swap1\n      tag_37\n      jump\t// in\n    tag_59:\n      dup1\n      iszero\n      tag_60\n      jumpi\n      dup1\n      0x1f\n      lt\n      tag_61\n      jumpi\n      0x0100\n      dup1\n      dup4\n      sload\n      div\n      mul\n      dup4\n      mstore\n      swap2\n      0x20\n      add\n      swap2\n      jump(tag_60)\n    tag_61:\n      dup3\n      add\n      swap2\n      swap1\n      0x00\n      mstore\n      keccak256(0x00, 0x20)\n      swap1\n    tag_62:\n      dup2\n      sload\n      dup2\n      mstore\n      swap1\n      0x01\n      add\n      swap1\n      0x20\n      add\n      dup1\n      dup4\n      gt\n      tag_62\n      jumpi\n      dup3\n      swap1\n      sub\n      0x1f\n      and\n      dup3\n      add\n      swap2\n    tag_60:\n      pop\n      pop\n      pop\n      pop\n      pop\n      dup2\n      mstore\n      0x20\n      add\n      0x02\n      dup3\n      add\n      dup1\n      sload\n      tag_63\n      swap1\n      tag_37\n      jump\t// in\n    tag_63:\n      dup1\n      0x1f\n      add\n      0x20\n      dup1\n      swap2\n      div\n      mul\n      0x20\n      add\n      mload(0x40)\n      swap1\n      dup2\n      add\n      0x40\n      mstore\n      dup1\n      swap3\n      swap2\n      swap1\n      dup2\n      dup2\n      mstore\n      0x20\n      add\n      dup3\n      dup1\n      sload\n      tag_64\n      swap1\n      tag_37\n      jump\t// in\n    tag_64:\n      dup1\n      iszero\n      tag_65\n      jumpi\n      dup1\n      0x1f\n      lt\n      tag_66\n      jumpi\n      0x0100\n      dup1\n      dup4\n      sload\n      div\n      mul\n      dup4\n      mstore\n      swap2\n      0x20\n      add\n      swap2\n      jump(tag_65)\n    tag_66:\n      dup3\n      add\n      swap2\n      swap1\n      0x00\n      mstore\n      keccak256(0x00, 0x20)\n      swap1\n    tag_67:\n      dup2\n      sload\n      dup2\n      mstore\n      swap1\n      0x01\n      add\n      swap1\n      0x20\n      add\n      dup1\n      dup4\n      gt\n      tag_67\n      jumpi\n      dup3\n      swap1\n      sub\n      0x1f\n      and\n      dup3\n      add\n      swap2\n    tag_65:\n      pop\n      pop\n      pop\n      pop\n      pop\n      dup2\n      mstore\n      0x20\n      add\n      0x03\n      dup3\n      add\n      dup1\n      sload\n      tag_68\n      swap1\n      tag_37\n      jump\t// in\n    tag_68:\n      dup1\n      0x1f\n      add\n      0x20\n      dup1\n      swap2\n      div\n      mul\n      0x20\n      add\n      mload(0x40)\n      swap1\n      dup2\n      add\n      0x40\n      mstore\n      dup1\n      swap3\n      swap2\n      swap1\n      dup2\n      dup2\n      mstore\n      0x20\n      add\n      dup3\n      dup1\n      sload\n      tag_69\n      swap1\n      tag_37\n      jump\t// in\n    tag_69:\n      dup1\n      iszero\n      tag_70\n      jumpi\n      dup1\n      0x1f\n      lt\n      tag_71\n      jumpi\n      0x0100\n      dup1\n      dup4\n      sload\n      div\n      mul\n      dup4\n      mstore\n      swap2\n      0x20\n      add\n      swap2\n      jump(tag_70)\n    tag_71:\n      dup3\n      add\n      swap2\n      swap1\n      0x00\n      mstore\n      keccak256(0x00, 0x20)\n      swap1\n    tag_72:\n      dup2\n      sload\n      dup2\n      mstore\n      swap1\n      0x01\n      add\n      swap1\n      0x20\n      add\n      dup1\n      dup4\n      gt\n      tag_72\n      jumpi\n      dup3\n      swap1\n      sub\n      0x1f\n      and\n      dup3\n      add\n      swap2\n    tag_70:\n      pop\n      pop\n      pop\n      pop\n      pop\n      dup2\n      mstore\n      0x20\n      add\n      0x04\n      dup3\n      add\n      dup1\n      sload\n      tag_73\n      swap1\n      tag_37\n      jump\t// in\n    tag_73:\n      dup1\n      0x1f\n      add\n      0x20\n      dup1\n      swap2\n      div\n      mul\n      0x20\n      add\n      mload(0x40)\n      swap1\n      dup2\n      add\n      0x40\n      mstore\n      dup1\n      swap3\n      swap2\n      swap1\n      dup2\n      dup2\n      mstore\n      0x20\n      add\n      dup3\n      dup1\n      sload\n      tag_74\n      swap1\n      tag_37\n      jump\t// in\n    tag_74:\n      dup1\n      iszero\n      tag_75\n      jumpi\n      dup1\n      0x1f\n      lt\n      tag_76\n      jumpi\n      0x0100\n      dup1\n      dup4\n      sload\n      div\n      mul\n      dup4\n      mstore\n      swap2\n      0x20\n      add\n      swap2\n      jump(tag_75)\n    tag_76:\n      dup3\n      add\n      swap2\n      swap1\n      0x00\n      mstore\n      keccak256(0x00, 0x20)\n      swap1\n    tag_77:\n      dup2\n      sload\n      dup2\n      mstore\n      swap1\n      0x01\n      add\n      swap1\n      0x20\n      add\n      dup1\n      dup4\n      gt\n      tag_77\n      jumpi\n      dup3\n      swap1\n      sub\n      0x1f\n      and\n      dup3\n      add\n      swap2\n    tag_75:\n      pop\n      pop\n      pop\n      pop\n      pop\n      dup2\n      mstore\n      0x20\n      add\n      0x05\n      dup3\n      add\n      sload\n      dup2\n      mstore\n      0x20\n      add\n      0x06\n      dup3\n      add\n      0x00\n      swap1\n      sload\n      swap1\n      0x0100\n      exp\n      swap1\n      div\n      0xff\n      and\n      iszero\n      iszero\n      iszero\n      iszero\n      dup2\n      mstore\n      pop\n      pop\n      swap1\n      pop\n        /* \"contracts/DonateCrypto.sol\":1265:1275  msg.sender */\n      caller\n        /* \"contracts/DonateCrypto.sol\":1246:1275  campaign.author == msg.sender */\n      0xffffffffffffffffffffffffffffffffffffffff\n      and\n        /* \"contracts/DonateCrypto.sol\":1246:1254  campaign */\n      dup2\n        /* \"contracts/DonateCrypto.sol\":1246:1261  campaign.author */\n      0x00\n      add\n      mload\n        /* \"contracts/DonateCrypto.sol\":1246:1275  campaign.author == msg.sender */\n      0xffffffffffffffffffffffffffffffffffffffff\n      and\n      eq\n        /* \"contracts/DonateCrypto.sol\":1238:1306  require(campaign.author == msg.sender, \"You do not have permission\") */\n      tag_78\n      jumpi\n      mload(0x40)\n      0x08c379a000000000000000000000000000000000000000000000000000000000\n      dup2\n      mstore\n      0x04\n      add\n      tag_79\n      swap1\n      tag_80\n      jump\t// in\n    tag_79:\n      mload(0x40)\n      dup1\n      swap2\n      sub\n      swap1\n      revert\n    tag_78:\n        /* \"contracts/DonateCrypto.sol\":1344:1348  true */\n      0x01\n        /* \"contracts/DonateCrypto.sol\":1325:1348  campaign.active == true */\n      iszero\n      iszero\n        /* \"contracts/DonateCrypto.sol\":1325:1333  campaign */\n      dup2\n        /* \"contracts/DonateCrypto.sol\":1325:1340  campaign.active */\n      0xc0\n      add\n      mload\n        /* \"contracts/DonateCrypto.sol\":1325:1348  campaign.active == true */\n      iszero\n      iszero\n      eq\n        /* \"contracts/DonateCrypto.sol\":1317:1376  require(campaign.active == true, \"This campaign is closed\") */\n      tag_81\n      jumpi\n      mload(0x40)\n      0x08c379a000000000000000000000000000000000000000000000000000000000\n      dup2\n      mstore\n      0x04\n      add\n      tag_82\n      swap1\n      tag_83\n      jump\t// in\n    tag_82:\n      mload(0x40)\n      dup1\n      swap2\n      sub\n      swap1\n      revert\n    tag_81:\n        /* \"contracts/DonateCrypto.sol\":1414:1417  fee */\n      sload(0x00)\n        /* \"contracts/DonateCrypto.sol\":1395:1403  campaign */\n      dup2\n        /* \"contracts/DonateCrypto.sol\":1395:1411  campaign.balance */\n      0xa0\n      add\n      mload\n        /* \"contracts/DonateCrypto.sol\":1395:1417  campaign.balance > fee */\n      gt\n        /* \"contracts/DonateCrypto.sol\":1387:1462  require(campaign.balance > fee, \"This campaign do not have enough balance\") */\n      tag_84\n      jumpi\n      mload(0x40)\n      0x08c379a000000000000000000000000000000000000000000000000000000000\n      dup2\n      mstore\n      0x04\n      add\n      tag_85\n      swap1\n      tag_86\n      jump\t// in\n    tag_85:\n      mload(0x40)\n      dup1\n      swap2\n      sub\n      swap1\n      revert\n    tag_84:\n        /* \"contracts/DonateCrypto.sol\":1475:1500  address payable recipient */\n      0x00\n        /* \"contracts/DonateCrypto.sol\":1512:1520  campaign */\n      dup2\n        /* \"contracts/DonateCrypto.sol\":1512:1527  campaign.author */\n      0x00\n      add\n      mload\n        /* \"contracts/DonateCrypto.sol\":1475:1528  address payable recipient = payable (campaign.author) */\n      swap1\n      pop\n        /* \"contracts/DonateCrypto.sol\":1539:1548  recipient */\n      dup1\n        /* \"contracts/DonateCrypto.sol\":1539:1553  recipient.call */\n      0xffffffffffffffffffffffffffffffffffffffff\n      and\n        /* \"contracts/DonateCrypto.sol\":1580:1583  fee */\n      sload(0x00)\n        /* \"contracts/DonateCrypto.sol\":1561:1569  campaign */\n      dup4\n        /* \"contracts/DonateCrypto.sol\":1561:1577  campaign.balance */\n      0xa0\n      add\n      mload\n        /* \"contracts/DonateCrypto.sol\":1561:1583  campaign.balance - fee */\n      tag_87\n      swap2\n      swap1\n      tag_88\n      jump\t// in\n    tag_87:\n        /* \"contracts/DonateCrypto.sol\":1539:1588  recipient.call{value: campaign.balance - fee}(\"\") */\n      mload(0x40)\n      tag_89\n      swap1\n      tag_90\n      jump\t// in\n    tag_89:\n      0x00\n      mload(0x40)\n      dup1\n      dup4\n      sub\n      dup2\n      dup6\n      dup8\n      gas\n      call\n      swap3\n      pop\n      pop\n      pop\n      returndatasize\n      dup1\n      0x00\n      dup2\n      eq\n      tag_93\n      jumpi\n      mload(0x40)\n      swap2\n      pop\n      and(add(returndatasize, 0x3f), not(0x1f))\n      dup3\n      add\n      0x40\n      mstore\n      returndatasize\n      dup3\n      mstore\n      returndatasize\n      0x00\n      0x20\n      dup5\n      add\n      returndatacopy\n      jump(tag_92)\n    tag_93:\n      0x60\n      swap2\n      pop\n    tag_92:\n      pop\n      pop\n      pop\n        /* \"contracts/DonateCrypto.sol\":1624:1629  false */\n      0x00\n        /* \"contracts/DonateCrypto.sol\":1601:1610  campaigns */\n      0x02\n        /* \"contracts/DonateCrypto.sol\":1601:1614  campaigns[id] */\n      0x00\n        /* \"contracts/DonateCrypto.sol\":1611:1613  id */\n      dup6\n        /* \"contracts/DonateCrypto.sol\":1601:1614  campaigns[id] */\n      dup2\n      mstore\n      0x20\n      add\n      swap1\n      dup2\n      mstore\n      0x20\n      add\n      0x00\n      keccak256\n        /* \"contracts/DonateCrypto.sol\":1601:1621  campaigns[id].active */\n      0x06\n      add\n      0x00\n        /* \"contracts/DonateCrypto.sol\":1601:1629  campaigns[id].active = false */\n      0x0100\n      exp\n      dup2\n      sload\n      dup2\n      0xff\n      mul\n      not\n      and\n      swap1\n      dup4\n      iszero\n      iszero\n      mul\n      or\n      swap1\n      sstore\n      pop\n        /* \"contracts/DonateCrypto.sol\":1174:1639  {... */\n      pop\n      pop\n        /* \"contracts/DonateCrypto.sol\":1137:1639  function withdraw(uint256 id) public {... */\n      pop\n      jump\t// out\n        /* \"contracts/DonateCrypto.sol\":295:320  uint256 public nextId = 0 */\n    tag_21:\n      sload(0x01)\n      dup2\n      jump\t// out\n        /* \"contracts/DonateCrypto.sol\":264:288  uint256 public fee = 100 */\n    tag_26:\n      sload(0x00)\n      dup2\n      jump\t// out\n        /* \"contracts/DonateCrypto.sol\":384:871  function addCampaign(string calldata title, string calldata description, string calldata videoUrl, string calldata imageUrl) public {... */\n    tag_32:\n        /* \"contracts/DonateCrypto.sol\":527:554  Campaign memory newCampaign */\n      tag_95\n      tag_96\n      jump\t// in\n    tag_95:\n        /* \"contracts/DonateCrypto.sol\":585:590  title */\n      dup9\n      dup9\n        /* \"contracts/DonateCrypto.sol\":565:590  newCampaign.title = title */\n      dup1\n      dup1\n      0x1f\n      add\n      0x20\n      dup1\n      swap2\n      div\n      mul\n      0x20\n      add\n      mload(0x40)\n      swap1\n      dup2\n      add\n      0x40\n      mstore\n      dup1\n      swap4\n      swap3\n      swap2\n      swap1\n      dup2\n      dup2\n      mstore\n      0x20\n      add\n      dup4\n      dup4\n      dup1\n      dup3\n      dup5\n      calldatacopy\n      0x00\n      dup2\n      dup5\n      add\n      mstore\n      not(0x1f)\n      0x1f\n      dup3\n      add\n      and\n      swap1\n      pop\n      dup1\n      dup4\n      add\n      swap3\n      pop\n      pop\n      pop\n      pop\n      pop\n      pop\n      pop\n        /* \"contracts/DonateCrypto.sol\":565:576  newCampaign */\n      dup2\n        /* \"contracts/DonateCrypto.sol\":565:582  newCampaign.title */\n      0x20\n      add\n        /* \"contracts/DonateCrypto.sol\":565:590  newCampaign.title = title */\n      dup2\n      swap1\n      mstore\n      pop\n        /* \"contracts/DonateCrypto.sol\":627:638  description */\n      dup7\n      dup7\n        /* \"contracts/DonateCrypto.sol\":601:638  newCampaign.description = description */\n      dup1\n      dup1\n      0x1f\n      add\n      0x20\n      dup1\n      swap2\n      div\n      mul\n      0x20\n      add\n      mload(0x40)\n      swap1\n      dup2\n      add\n      0x40\n      mstore\n      dup1\n      swap4\n      swap3\n      swap2\n      swap1\n      dup2\n      dup2\n      mstore\n      0x20\n      add\n      dup4\n      dup4\n      dup1\n      dup3\n      dup5\n      calldatacopy\n      0x00\n      dup2\n      dup5\n      add\n      mstore\n      not(0x1f)\n      0x1f\n      dup3\n      add\n      and\n      swap1\n      pop\n      dup1\n      dup4\n      add\n      swap3\n      pop\n      pop\n      pop\n      pop\n      pop\n      pop\n      pop\n        /* \"contracts/DonateCrypto.sol\":601:612  newCampaign */\n      dup2\n        /* \"contracts/DonateCrypto.sol\":601:624  newCampaign.description */\n      0x40\n      add\n        /* \"contracts/DonateCrypto.sol\":601:638  newCampaign.description = description */\n      dup2\n      swap1\n      mstore\n      pop\n        /* \"contracts/DonateCrypto.sol\":672:680  videoUrl */\n      dup5\n      dup5\n        /* \"contracts/DonateCrypto.sol\":649:680  newCampaign.videoUrl = videoUrl */\n      dup1\n      dup1\n      0x1f\n      add\n      0x20\n      dup1\n      swap2\n      div\n      mul\n      0x20\n      add\n      mload(0x40)\n      swap1\n      dup2\n      add\n      0x40\n      mstore\n      dup1\n      swap4\n      swap3\n      swap2\n      swap1\n      dup2\n      dup2\n      mstore\n      0x20\n      add\n      dup4\n      dup4\n      dup1\n      dup3\n      dup5\n      calldatacopy\n      0x00\n      dup2\n      dup5\n      add\n      mstore\n      not(0x1f)\n      0x1f\n      dup3\n      add\n      and\n      swap1\n      pop\n      dup1\n      dup4\n      add\n      swap3\n      pop\n      pop\n      pop\n      pop\n      pop\n      pop\n      pop\n        /* \"contracts/DonateCrypto.sol\":649:660  newCampaign */\n      dup2\n        /* \"contracts/DonateCrypto.sol\":649:669  newCampaign.videoUrl */\n      0x60\n      add\n        /* \"contracts/DonateCrypto.sol\":649:680  newCampaign.videoUrl = videoUrl */\n      dup2\n      swap1\n      mstore\n      pop\n        /* \"contracts/DonateCrypto.sol\":714:722  imageUrl */\n      dup3\n      dup3\n        /* \"contracts/DonateCrypto.sol\":691:722  newCampaign.imageUrl = imageUrl */\n      dup1\n      dup1\n      0x1f\n      add\n      0x20\n      dup1\n      swap2\n      div\n      mul\n      0x20\n      add\n      mload(0x40)\n      swap1\n      dup2\n      add\n      0x40\n      mstore\n      dup1\n      swap4\n      swap3\n      swap2\n      swap1\n      dup2\n      dup2\n      mstore\n      0x20\n      add\n      dup4\n      dup4\n      dup1\n      dup3\n      dup5\n      calldatacopy\n      0x00\n      dup2\n      dup5\n      add\n      mstore\n      not(0x1f)\n      0x1f\n      dup3\n      add\n      and\n      swap1\n      pop\n      dup1\n      dup4\n      add\n      swap3\n      pop\n      pop\n      pop\n      pop\n      pop\n      pop\n      pop\n        /* \"contracts/DonateCrypto.sol\":691:702  newCampaign */\n      dup2\n        /* \"contracts/DonateCrypto.sol\":691:711  newCampaign.imageUrl */\n      0x80\n      add\n        /* \"contracts/DonateCrypto.sol\":691:722  newCampaign.imageUrl = imageUrl */\n      dup2\n      swap1\n      mstore\n      pop\n        /* \"contracts/DonateCrypto.sol\":754:758  true */\n      0x01\n        /* \"contracts/DonateCrypto.sol\":733:744  newCampaign */\n      dup2\n        /* \"contracts/DonateCrypto.sol\":733:751  newCampaign.active */\n      0xc0\n      add\n        /* \"contracts/DonateCrypto.sol\":733:758  newCampaign.active = true */\n      swap1\n      iszero\n      iszero\n      swap1\n      dup2\n      iszero\n      iszero\n      dup2\n      mstore\n      pop\n      pop\n        /* \"contracts/DonateCrypto.sol\":790:800  msg.sender */\n      caller\n        /* \"contracts/DonateCrypto.sol\":769:780  newCampaign */\n      dup2\n        /* \"contracts/DonateCrypto.sol\":769:787  newCampaign.author */\n      0x00\n      add\n        /* \"contracts/DonateCrypto.sol\":769:800  newCampaign.author = msg.sender */\n      swap1\n      0xffffffffffffffffffffffffffffffffffffffff\n      and\n      swap1\n      dup2\n      0xffffffffffffffffffffffffffffffffffffffff\n      and\n      dup2\n      mstore\n      pop\n      pop\n        /* \"contracts/DonateCrypto.sol\":813:819  nextId */\n      0x01\n      0x00\n        /* \"contracts/DonateCrypto.sol\":813:821  nextId++ */\n      dup2\n      sload\n      dup1\n      swap3\n      swap2\n      swap1\n      tag_97\n      swap1\n      tag_98\n      jump\t// in\n    tag_97:\n      swap2\n      swap1\n      pop\n      sstore\n      pop\n        /* \"contracts/DonateCrypto.sol\":852:863  newCampaign */\n      dup1\n        /* \"contracts/DonateCrypto.sol\":832:841  campaigns */\n      0x02\n        /* \"contracts/DonateCrypto.sol\":832:849  campaigns[nextId] */\n      0x00\n        /* \"contracts/DonateCrypto.sol\":842:848  nextId */\n      sload(0x01)\n        /* \"contracts/DonateCrypto.sol\":832:849  campaigns[nextId] */\n      dup2\n      mstore\n      0x20\n      add\n      swap1\n      dup2\n      mstore\n      0x20\n      add\n      0x00\n      keccak256\n        /* \"contracts/DonateCrypto.sol\":832:863  campaigns[nextId] = newCampaign */\n      0x00\n      dup3\n      add\n      mload\n      dup2\n      0x00\n      add\n      exp(0x0100, 0x00)\n      dup2\n      sload\n      dup2\n      0xffffffffffffffffffffffffffffffffffffffff\n      mul\n      not\n      and\n      swap1\n      dup4\n      0xffffffffffffffffffffffffffffffffffffffff\n      and\n      mul\n      or\n      swap1\n      sstore\n      pop\n      0x20\n      dup3\n      add\n      mload\n      dup2\n      0x01\n      add\n      swap1\n      dup2\n      tag_99\n      swap2\n      swap1\n      tag_100\n      jump\t// in\n    tag_99:\n      pop\n      0x40\n      dup3\n      add\n      mload\n      dup2\n      0x02\n      add\n      swap1\n      dup2\n      tag_101\n      swap2\n      swap1\n      tag_100\n      jump\t// in\n    tag_101:\n      pop\n      0x60\n      dup3\n      add\n      mload\n      dup2\n      0x03\n      add\n      swap1\n      dup2\n      tag_102\n      swap2\n      swap1\n      tag_100\n      jump\t// in\n    tag_102:\n      pop\n      0x80\n      dup3\n      add\n      mload\n      dup2\n      0x04\n      add\n      swap1\n      dup2\n      tag_103\n      swap2\n      swap1\n      tag_100\n      jump\t// in\n    tag_103:\n      pop\n      0xa0\n      dup3\n      add\n      mload\n      dup2\n      0x05\n      add\n      sstore\n      0xc0\n      dup3\n      add\n      mload\n      dup2\n      0x06\n      add\n      exp(0x0100, 0x00)\n      dup2\n      sload\n      dup2\n      0xff\n      mul\n      not\n      and\n      swap1\n      dup4\n      iszero\n      iszero\n      mul\n      or\n      swap1\n      sstore\n      pop\n      swap1\n      pop\n      pop\n        /* \"contracts/DonateCrypto.sol\":516:871  {... */\n      pop\n        /* \"contracts/DonateCrypto.sol\":384:871  function addCampaign(string calldata title, string calldata description, string calldata videoUrl, string calldata imageUrl) public {... */\n      pop\n      pop\n      pop\n      pop\n      pop\n      pop\n      pop\n      pop\n      jump\t// out\n        /* \"contracts/DonateCrypto.sol\":879:1129  function donate(uint256 id) public payable {... */\n    tag_35:\n        /* \"contracts/DonateCrypto.sol\":953:954  0 */\n      0x00\n        /* \"contracts/DonateCrypto.sol\":941:950  msg.value */\n      callvalue\n        /* \"contracts/DonateCrypto.sol\":941:954  msg.value > 0 */\n      gt\n        /* \"contracts/DonateCrypto.sol\":933:993  require(msg.value > 0, \"You must send a donation value > 0\") */\n      tag_105\n      jumpi\n      mload(0x40)\n      0x08c379a000000000000000000000000000000000000000000000000000000000\n      dup2\n      mstore\n      0x04\n      add\n      tag_106\n      swap1\n      tag_107\n      jump\t// in\n    tag_106:\n      mload(0x40)\n      dup1\n      swap2\n      sub\n      swap1\n      revert\n    tag_105:\n        /* \"contracts/DonateCrypto.sol\":1036:1040  true */\n      0x01\n        /* \"contracts/DonateCrypto.sol\":1012:1040  campaigns[id].active == true */\n      iszero\n      iszero\n        /* \"contracts/DonateCrypto.sol\":1012:1021  campaigns */\n      0x02\n        /* \"contracts/DonateCrypto.sol\":1012:1025  campaigns[id] */\n      0x00\n        /* \"contracts/DonateCrypto.sol\":1022:1024  id */\n      dup4\n        /* \"contracts/DonateCrypto.sol\":1012:1025  campaigns[id] */\n      dup2\n      mstore\n      0x20\n      add\n      swap1\n      dup2\n      mstore\n      0x20\n      add\n      0x00\n      keccak256\n        /* \"contracts/DonateCrypto.sol\":1012:1032  campaigns[id].active */\n      0x06\n      add\n      0x00\n      swap1\n      sload\n      swap1\n      0x0100\n      exp\n      swap1\n      div\n      0xff\n      and\n        /* \"contracts/DonateCrypto.sol\":1012:1040  campaigns[id].active == true */\n      iszero\n      iszero\n      eq\n        /* \"contracts/DonateCrypto.sol\":1004:1074  require(campaigns[id].active == true, \"Cannot donate to this camping\") */\n      tag_108\n      jumpi\n      mload(0x40)\n      0x08c379a000000000000000000000000000000000000000000000000000000000\n      dup2\n      mstore\n      0x04\n      add\n      tag_109\n      swap1\n      tag_110\n      jump\t// in\n    tag_109:\n      mload(0x40)\n      dup1\n      swap2\n      sub\n      swap1\n      revert\n    tag_108:\n        /* \"contracts/DonateCrypto.sol\":1112:1121  msg.value */\n      callvalue\n        /* \"contracts/DonateCrypto.sol\":1087:1096  campaigns */\n      0x02\n        /* \"contracts/DonateCrypto.sol\":1087:1100  campaigns[id] */\n      0x00\n        /* \"contracts/DonateCrypto.sol\":1097:1099  id */\n      dup4\n        /* \"contracts/DonateCrypto.sol\":1087:1100  campaigns[id] */\n      dup2\n      mstore\n      0x20\n      add\n      swap1\n      dup2\n      mstore\n      0x20\n      add\n      0x00\n      keccak256\n        /* \"contracts/DonateCrypto.sol\":1087:1108  campaigns[id].balance */\n      0x05\n      add\n      0x00\n        /* \"contracts/DonateCrypto.sol\":1087:1121  campaigns[id].balance += msg.value */\n      dup3\n      dup3\n      sload\n      tag_111\n      swap2\n      swap1\n      tag_112\n      jump\t// in\n    tag_111:\n      swap3\n      pop\n      pop\n      dup2\n      swap1\n      sstore\n      pop\n        /* \"contracts/DonateCrypto.sol\":879:1129  function donate(uint256 id) public payable {... */\n      pop\n      jump\t// out\n    tag_96:\n      mload(0x40)\n      dup1\n      0xe0\n      add\n      0x40\n      mstore\n      dup1\n      and(0xffffffffffffffffffffffffffffffffffffffff, 0x00)\n      dup2\n      mstore\n      0x20\n      add\n      0x60\n      dup2\n      mstore\n      0x20\n      add\n      0x60\n      dup2\n      mstore\n      0x20\n      add\n      0x60\n      dup2\n      mstore\n      0x20\n      add\n      0x60\n      dup2\n      mstore\n      0x20\n      add\n      0x00\n      dup2\n      mstore\n      0x20\n      add\n      iszero(iszero(0x00))\n      dup2\n      mstore\n      pop\n      swap1\n      jump\t// out\n        /* \"#utility.yul\":88:205   */\n    tag_114:\n        /* \"#utility.yul\":197:198   */\n      0x00\n        /* \"#utility.yul\":194:195   */\n      dup1\n        /* \"#utility.yul\":187:199   */\n      revert\n        /* \"#utility.yul\":211:328   */\n    tag_115:\n        /* \"#utility.yul\":320:321   */\n      0x00\n        /* \"#utility.yul\":317:318   */\n      dup1\n        /* \"#utility.yul\":310:322   */\n      revert\n        /* \"#utility.yul\":334:411   */\n    tag_116:\n        /* \"#utility.yul\":371:378   */\n      0x00\n        /* \"#utility.yul\":400:405   */\n      dup2\n        /* \"#utility.yul\":389:405   */\n      swap1\n      pop\n        /* \"#utility.yul\":334:411   */\n      swap2\n      swap1\n      pop\n      jump\t// out\n        /* \"#utility.yul\":417:539   */\n    tag_117:\n        /* \"#utility.yul\":490:514   */\n      tag_171\n        /* \"#utility.yul\":508:513   */\n      dup2\n        /* \"#utility.yul\":490:514   */\n      tag_116\n      jump\t// in\n    tag_171:\n        /* \"#utility.yul\":483:488   */\n      dup2\n        /* \"#utility.yul\":480:515   */\n      eq\n        /* \"#utility.yul\":470:533   */\n      tag_172\n      jumpi\n        /* \"#utility.yul\":529:530   */\n      0x00\n        /* \"#utility.yul\":526:527   */\n      dup1\n        /* \"#utility.yul\":519:531   */\n      revert\n        /* \"#utility.yul\":470:533   */\n    tag_172:\n        /* \"#utility.yul\":417:539   */\n      pop\n      jump\t// out\n        /* \"#utility.yul\":545:684   */\n    tag_118:\n        /* \"#utility.yul\":591:596   */\n      0x00\n        /* \"#utility.yul\":629:635   */\n      dup2\n        /* \"#utility.yul\":616:636   */\n      calldataload\n        /* \"#utility.yul\":607:636   */\n      swap1\n      pop\n        /* \"#utility.yul\":645:678   */\n      tag_174\n        /* \"#utility.yul\":672:677   */\n      dup2\n        /* \"#utility.yul\":645:678   */\n      tag_117\n      jump\t// in\n    tag_174:\n        /* \"#utility.yul\":545:684   */\n      swap3\n      swap2\n      pop\n      pop\n      jump\t// out\n        /* \"#utility.yul\":690:1019   */\n    tag_11:\n        /* \"#utility.yul\":749:755   */\n      0x00\n        /* \"#utility.yul\":798:800   */\n      0x20\n        /* \"#utility.yul\":786:795   */\n      dup3\n        /* \"#utility.yul\":777:784   */\n      dup5\n        /* \"#utility.yul\":773:796   */\n      sub\n        /* \"#utility.yul\":769:801   */\n      slt\n        /* \"#utility.yul\":766:885   */\n      iszero\n      tag_176\n      jumpi\n        /* \"#utility.yul\":804:883   */\n      tag_177\n      tag_114\n      jump\t// in\n    tag_177:\n        /* \"#utility.yul\":766:885   */\n    tag_176:\n        /* \"#utility.yul\":924:925   */\n      0x00\n        /* \"#utility.yul\":949:1002   */\n      tag_178\n        /* \"#utility.yul\":994:1001   */\n      dup5\n        /* \"#utility.yul\":985:991   */\n      dup3\n        /* \"#utility.yul\":974:983   */\n      dup6\n        /* \"#utility.yul\":970:992   */\n      add\n        /* \"#utility.yul\":949:1002   */\n      tag_118\n      jump\t// in\n    tag_178:\n        /* \"#utility.yul\":939:1002   */\n      swap2\n      pop\n        /* \"#utility.yul\":895:1012   */\n      pop\n        /* \"#utility.yul\":690:1019   */\n      swap3\n      swap2\n      pop\n      pop\n      jump\t// out\n        /* \"#utility.yul\":1025:1151   */\n    tag_119:\n        /* \"#utility.yul\":1062:1069   */\n      0x00\n        /* \"#utility.yul\":1102:1144   */\n      0xffffffffffffffffffffffffffffffffffffffff\n        /* \"#utility.yul\":1095:1100   */\n      dup3\n        /* \"#utility.yul\":1091:1145   */\n      and\n        /* \"#utility.yul\":1080:1145   */\n      swap1\n      pop\n        /* \"#utility.yul\":1025:1151   */\n      swap2\n      swap1\n      pop\n      jump\t// out\n        /* \"#utility.yul\":1157:1253   */\n    tag_120:\n        /* \"#utility.yul\":1194:1201   */\n      0x00\n        /* \"#utility.yul\":1223:1247   */\n      tag_181\n        /* \"#utility.yul\":1241:1246   */\n      dup3\n        /* \"#utility.yul\":1223:1247   */\n      tag_119\n      jump\t// in\n    tag_181:\n        /* \"#utility.yul\":1212:1247   */\n      swap1\n      pop\n        /* \"#utility.yul\":1157:1253   */\n      swap2\n      swap1\n      pop\n      jump\t// out\n        /* \"#utility.yul\":1259:1377   */\n    tag_121:\n        /* \"#utility.yul\":1346:1370   */\n      tag_183\n        /* \"#utility.yul\":1364:1369   */\n      dup2\n        /* \"#utility.yul\":1346:1370   */\n      tag_120\n      jump\t// in\n    tag_183:\n        /* \"#utility.yul\":1341:1344   */\n      dup3\n        /* \"#utility.yul\":1334:1371   */\n      mstore\n        /* \"#utility.yul\":1259:1377   */\n      pop\n      pop\n      jump\t// out\n        /* \"#utility.yul\":1383:1482   */\n    tag_122:\n        /* \"#utility.yul\":1435:1441   */\n      0x00\n        /* \"#utility.yul\":1469:1474   */\n      dup2\n        /* \"#utility.yul\":1463:1475   */\n      mload\n        /* \"#utility.yul\":1453:1475   */\n      swap1\n      pop\n        /* \"#utility.yul\":1383:1482   */\n      swap2\n      swap1\n      pop\n      jump\t// out\n        /* \"#utility.yul\":1488:1657   */\n    tag_123:\n        /* \"#utility.yul\":1572:1583   */\n      0x00\n        /* \"#utility.yul\":1606:1612   */\n      dup3\n        /* \"#utility.yul\":1601:1604   */\n      dup3\n        /* \"#utility.yul\":1594:1613   */\n      mstore\n        /* \"#utility.yul\":1646:1650   */\n      0x20\n        /* \"#utility.yul\":1641:1644   */\n      dup3\n        /* \"#utility.yul\":1637:1651   */\n      add\n        /* \"#utility.yul\":1622:1651   */\n      swap1\n      pop\n        /* \"#utility.yul\":1488:1657   */\n      swap3\n      swap2\n      pop\n      pop\n      jump\t// out\n        /* \"#utility.yul\":1663:1909   */\n    tag_124:\n        /* \"#utility.yul\":1744:1745   */\n      0x00\n        /* \"#utility.yul\":1754:1867   */\n    tag_187:\n        /* \"#utility.yul\":1768:1774   */\n      dup4\n        /* \"#utility.yul\":1765:1766   */\n      dup2\n        /* \"#utility.yul\":1762:1775   */\n      lt\n        /* \"#utility.yul\":1754:1867   */\n      iszero\n      tag_189\n      jumpi\n        /* \"#utility.yul\":1853:1854   */\n      dup1\n        /* \"#utility.yul\":1848:1851   */\n      dup3\n        /* \"#utility.yul\":1844:1855   */\n      add\n        /* \"#utility.yul\":1838:1856   */\n      mload\n        /* \"#utility.yul\":1834:1835   */\n      dup2\n        /* \"#utility.yul\":1829:1832   */\n      dup5\n        /* \"#utility.yul\":1825:1836   */\n      add\n        /* \"#utility.yul\":1818:1857   */\n      mstore\n        /* \"#utility.yul\":1790:1792   */\n      0x20\n        /* \"#utility.yul\":1787:1788   */\n      dup2\n        /* \"#utility.yul\":1783:1793   */\n      add\n        /* \"#utility.yul\":1778:1793   */\n      swap1\n      pop\n        /* \"#utility.yul\":1754:1867   */\n      jump(tag_187)\n    tag_189:\n        /* \"#utility.yul\":1901:1902   */\n      0x00\n        /* \"#utility.yul\":1892:1898   */\n      dup5\n        /* \"#utility.yul\":1887:1890   */\n      dup5\n        /* \"#utility.yul\":1883:1899   */\n      add\n        /* \"#utility.yul\":1876:1903   */\n      mstore\n        /* \"#utility.yul\":1725:1909   */\n      pop\n        /* \"#utility.yul\":1663:1909   */\n      pop\n      pop\n      pop\n      jump\t// out\n        /* \"#utility.yul\":1915:2017   */\n    tag_125:\n        /* \"#utility.yul\":1956:1962   */\n      0x00\n        /* \"#utility.yul\":2007:2009   */\n      0x1f\n        /* \"#utility.yul\":2003:2010   */\n      not\n        /* \"#utility.yul\":1998:2000   */\n      0x1f\n        /* \"#utility.yul\":1991:1996   */\n      dup4\n        /* \"#utility.yul\":1987:2001   */\n      add\n        /* \"#utility.yul\":1983:2011   */\n      and\n        /* \"#utility.yul\":1973:2011   */\n      swap1\n      pop\n        /* \"#utility.yul\":1915:2017   */\n      swap2\n      swap1\n      pop\n      jump\t// out\n        /* \"#utility.yul\":2023:2400   */\n    tag_126:\n        /* \"#utility.yul\":2111:2114   */\n      0x00\n        /* \"#utility.yul\":2139:2178   */\n      tag_192\n        /* \"#utility.yul\":2172:2177   */\n      dup3\n        /* \"#utility.yul\":2139:2178   */\n      tag_122\n      jump\t// in\n    tag_192:\n        /* \"#utility.yul\":2194:2265   */\n      tag_193\n        /* \"#utility.yul\":2258:2264   */\n      dup2\n        /* \"#utility.yul\":2253:2256   */\n      dup6\n        /* \"#utility.yul\":2194:2265   */\n      tag_123\n      jump\t// in\n    tag_193:\n        /* \"#utility.yul\":2187:2265   */\n      swap4\n      pop\n        /* \"#utility.yul\":2274:2339   */\n      tag_194\n        /* \"#utility.yul\":2332:2338   */\n      dup2\n        /* \"#utility.yul\":2327:2330   */\n      dup6\n        /* \"#utility.yul\":2320:2324   */\n      0x20\n        /* \"#utility.yul\":2313:2318   */\n      dup7\n        /* \"#utility.yul\":2309:2325   */\n      add\n        /* \"#utility.yul\":2274:2339   */\n      tag_124\n      jump\t// in\n    tag_194:\n        /* \"#utility.yul\":2364:2393   */\n      tag_195\n        /* \"#utility.yul\":2386:2392   */\n      dup2\n        /* \"#utility.yul\":2364:2393   */\n      tag_125\n      jump\t// in\n    tag_195:\n        /* \"#utility.yul\":2359:2362   */\n      dup5\n        /* \"#utility.yul\":2355:2394   */\n      add\n        /* \"#utility.yul\":2348:2394   */\n      swap2\n      pop\n        /* \"#utility.yul\":2115:2400   */\n      pop\n        /* \"#utility.yul\":2023:2400   */\n      swap3\n      swap2\n      pop\n      pop\n      jump\t// out\n        /* \"#utility.yul\":2406:2524   */\n    tag_127:\n        /* \"#utility.yul\":2493:2517   */\n      tag_197\n        /* \"#utility.yul\":2511:2516   */\n      dup2\n        /* \"#utility.yul\":2493:2517   */\n      tag_116\n      jump\t// in\n    tag_197:\n        /* \"#utility.yul\":2488:2491   */\n      dup3\n        /* \"#utility.yul\":2481:2518   */\n      mstore\n        /* \"#utility.yul\":2406:2524   */\n      pop\n      pop\n      jump\t// out\n        /* \"#utility.yul\":2530:2620   */\n    tag_128:\n        /* \"#utility.yul\":2564:2571   */\n      0x00\n        /* \"#utility.yul\":2607:2612   */\n      dup2\n        /* \"#utility.yul\":2600:2613   */\n      iszero\n        /* \"#utility.yul\":2593:2614   */\n      iszero\n        /* \"#utility.yul\":2582:2614   */\n      swap1\n      pop\n        /* \"#utility.yul\":2530:2620   */\n      swap2\n      swap1\n      pop\n      jump\t// out\n        /* \"#utility.yul\":2626:2735   */\n    tag_129:\n        /* \"#utility.yul\":2707:2728   */\n      tag_200\n        /* \"#utility.yul\":2722:2727   */\n      dup2\n        /* \"#utility.yul\":2707:2728   */\n      tag_128\n      jump\t// in\n    tag_200:\n        /* \"#utility.yul\":2702:2705   */\n      dup3\n        /* \"#utility.yul\":2695:2729   */\n      mstore\n        /* \"#utility.yul\":2626:2735   */\n      pop\n      pop\n      jump\t// out\n        /* \"#utility.yul\":2741:3979   */\n    tag_14:\n        /* \"#utility.yul\":3076:3080   */\n      0x00\n        /* \"#utility.yul\":3114:3117   */\n      0xe0\n        /* \"#utility.yul\":3103:3112   */\n      dup3\n        /* \"#utility.yul\":3099:3118   */\n      add\n        /* \"#utility.yul\":3091:3118   */\n      swap1\n      pop\n        /* \"#utility.yul\":3128:3199   */\n      tag_202\n        /* \"#utility.yul\":3196:3197   */\n      0x00\n        /* \"#utility.yul\":3185:3194   */\n      dup4\n        /* \"#utility.yul\":3181:3198   */\n      add\n        /* \"#utility.yul\":3172:3178   */\n      dup11\n        /* \"#utility.yul\":3128:3199   */\n      tag_121\n      jump\t// in\n    tag_202:\n        /* \"#utility.yul\":3246:3255   */\n      dup2\n        /* \"#utility.yul\":3240:3244   */\n      dup2\n        /* \"#utility.yul\":3236:3256   */\n      sub\n        /* \"#utility.yul\":3231:3233   */\n      0x20\n        /* \"#utility.yul\":3220:3229   */\n      dup4\n        /* \"#utility.yul\":3216:3234   */\n      add\n        /* \"#utility.yul\":3209:3257   */\n      mstore\n        /* \"#utility.yul\":3274:3352   */\n      tag_203\n        /* \"#utility.yul\":3347:3351   */\n      dup2\n        /* \"#utility.yul\":3338:3344   */\n      dup10\n        /* \"#utility.yul\":3274:3352   */\n      tag_126\n      jump\t// in\n    tag_203:\n        /* \"#utility.yul\":3266:3352   */\n      swap1\n      pop\n        /* \"#utility.yul\":3399:3408   */\n      dup2\n        /* \"#utility.yul\":3393:3397   */\n      dup2\n        /* \"#utility.yul\":3389:3409   */\n      sub\n        /* \"#utility.yul\":3384:3386   */\n      0x40\n        /* \"#utility.yul\":3373:3382   */\n      dup4\n        /* \"#utility.yul\":3369:3387   */\n      add\n        /* \"#utility.yul\":3362:3410   */\n      mstore\n        /* \"#utility.yul\":3427:3505   */\n      tag_204\n        /* \"#utility.yul\":3500:3504   */\n      dup2\n        /* \"#utility.yul\":3491:3497   */\n      dup9\n        /* \"#utility.yul\":3427:3505   */\n      tag_126\n      jump\t// in\n    tag_204:\n        /* \"#utility.yul\":3419:3505   */\n      swap1\n      pop\n        /* \"#utility.yul\":3552:3561   */\n      dup2\n        /* \"#utility.yul\":3546:3550   */\n      dup2\n        /* \"#utility.yul\":3542:3562   */\n      sub\n        /* \"#utility.yul\":3537:3539   */\n      0x60\n        /* \"#utility.yul\":3526:3535   */\n      dup4\n        /* \"#utility.yul\":3522:3540   */\n      add\n        /* \"#utility.yul\":3515:3563   */\n      mstore\n        /* \"#utility.yul\":3580:3658   */\n      tag_205\n        /* \"#utility.yul\":3653:3657   */\n      dup2\n        /* \"#utility.yul\":3644:3650   */\n      dup8\n        /* \"#utility.yul\":3580:3658   */\n      tag_126\n      jump\t// in\n    tag_205:\n        /* \"#utility.yul\":3572:3658   */\n      swap1\n      pop\n        /* \"#utility.yul\":3706:3715   */\n      dup2\n        /* \"#utility.yul\":3700:3704   */\n      dup2\n        /* \"#utility.yul\":3696:3716   */\n      sub\n        /* \"#utility.yul\":3690:3693   */\n      0x80\n        /* \"#utility.yul\":3679:3688   */\n      dup4\n        /* \"#utility.yul\":3675:3694   */\n      add\n        /* \"#utility.yul\":3668:3717   */\n      mstore\n        /* \"#utility.yul\":3734:3812   */\n      tag_206\n        /* \"#utility.yul\":3807:3811   */\n      dup2\n        /* \"#utility.yul\":3798:3804   */\n      dup7\n        /* \"#utility.yul\":3734:3812   */\n      tag_126\n      jump\t// in\n    tag_206:\n        /* \"#utility.yul\":3726:3812   */\n      swap1\n      pop\n        /* \"#utility.yul\":3822:3895   */\n      tag_207\n        /* \"#utility.yul\":3890:3893   */\n      0xa0\n        /* \"#utility.yul\":3879:3888   */\n      dup4\n        /* \"#utility.yul\":3875:3894   */\n      add\n        /* \"#utility.yul\":3866:3872   */\n      dup6\n        /* \"#utility.yul\":3822:3895   */\n      tag_127\n      jump\t// in\n    tag_207:\n        /* \"#utility.yul\":3905:3972   */\n      tag_208\n        /* \"#utility.yul\":3967:3970   */\n      0xc0\n        /* \"#utility.yul\":3956:3965   */\n      dup4\n        /* \"#utility.yul\":3952:3971   */\n      add\n        /* \"#utility.yul\":3943:3949   */\n      dup5\n        /* \"#utility.yul\":3905:3972   */\n      tag_129\n      jump\t// in\n    tag_208:\n        /* \"#utility.yul\":2741:3979   */\n      swap9\n      swap8\n      pop\n      pop\n      pop\n      pop\n      pop\n      pop\n      pop\n      pop\n      jump\t// out\n        /* \"#utility.yul\":3985:4207   */\n    tag_23:\n        /* \"#utility.yul\":4078:4082   */\n      0x00\n        /* \"#utility.yul\":4116:4118   */\n      0x20\n        /* \"#utility.yul\":4105:4114   */\n      dup3\n        /* \"#utility.yul\":4101:4119   */\n      add\n        /* \"#utility.yul\":4093:4119   */\n      swap1\n      pop\n        /* \"#utility.yul\":4129:4200   */\n      tag_210\n        /* \"#utility.yul\":4197:4198   */\n      0x00\n        /* \"#utility.yul\":4186:4195   */\n      dup4\n        /* \"#utility.yul\":4182:4199   */\n      add\n        /* \"#utility.yul\":4173:4179   */\n      dup5\n        /* \"#utility.yul\":4129:4200   */\n      tag_127\n      jump\t// in\n    tag_210:\n        /* \"#utility.yul\":3985:4207   */\n      swap3\n      swap2\n      pop\n      pop\n      jump\t// out\n        /* \"#utility.yul\":4213:4330   */\n    tag_130:\n        /* \"#utility.yul\":4322:4323   */\n      0x00\n        /* \"#utility.yul\":4319:4320   */\n      dup1\n        /* \"#utility.yul\":4312:4324   */\n      revert\n        /* \"#utility.yul\":4336:4453   */\n    tag_131:\n        /* \"#utility.yul\":4445:4446   */\n      0x00\n        /* \"#utility.yul\":4442:4443   */\n      dup1\n        /* \"#utility.yul\":4435:4447   */\n      revert\n        /* \"#utility.yul\":4459:4576   */\n    tag_132:\n        /* \"#utility.yul\":4568:4569   */\n      0x00\n        /* \"#utility.yul\":4565:4566   */\n      dup1\n        /* \"#utility.yul\":4558:4570   */\n      revert\n        /* \"#utility.yul\":4596:5149   */\n    tag_133:\n        /* \"#utility.yul\":4654:4662   */\n      0x00\n        /* \"#utility.yul\":4664:4670   */\n      dup1\n        /* \"#utility.yul\":4714:4717   */\n      dup4\n        /* \"#utility.yul\":4707:4711   */\n      0x1f\n        /* \"#utility.yul\":4699:4705   */\n      dup5\n        /* \"#utility.yul\":4695:4712   */\n      add\n        /* \"#utility.yul\":4691:4718   */\n      slt\n        /* \"#utility.yul\":4681:4803   */\n      tag_215\n      jumpi\n        /* \"#utility.yul\":4722:4801   */\n      tag_216\n      tag_130\n      jump\t// in\n    tag_216:\n        /* \"#utility.yul\":4681:4803   */\n    tag_215:\n        /* \"#utility.yul\":4835:4841   */\n      dup3\n        /* \"#utility.yul\":4822:4842   */\n      calldataload\n        /* \"#utility.yul\":4812:4842   */\n      swap1\n      pop\n        /* \"#utility.yul\":4865:4883   */\n      0xffffffffffffffff\n        /* \"#utility.yul\":4857:4863   */\n      dup2\n        /* \"#utility.yul\":4854:4884   */\n      gt\n        /* \"#utility.yul\":4851:4968   */\n      iszero\n      tag_217\n      jumpi\n        /* \"#utility.yul\":4887:4966   */\n      tag_218\n      tag_131\n      jump\t// in\n    tag_218:\n        /* \"#utility.yul\":4851:4968   */\n    tag_217:\n        /* \"#utility.yul\":5001:5005   */\n      0x20\n        /* \"#utility.yul\":4993:4999   */\n      dup4\n        /* \"#utility.yul\":4989:5006   */\n      add\n        /* \"#utility.yul\":4977:5006   */\n      swap2\n      pop\n        /* \"#utility.yul\":5055:5058   */\n      dup4\n        /* \"#utility.yul\":5047:5051   */\n      0x01\n        /* \"#utility.yul\":5039:5045   */\n      dup3\n        /* \"#utility.yul\":5035:5052   */\n      mul\n        /* \"#utility.yul\":5025:5033   */\n      dup4\n        /* \"#utility.yul\":5021:5053   */\n      add\n        /* \"#utility.yul\":5018:5059   */\n      gt\n        /* \"#utility.yul\":5015:5143   */\n      iszero\n      tag_219\n      jumpi\n        /* \"#utility.yul\":5062:5141   */\n      tag_220\n      tag_132\n      jump\t// in\n    tag_220:\n        /* \"#utility.yul\":5015:5143   */\n    tag_219:\n        /* \"#utility.yul\":4596:5149   */\n      swap3\n      pop\n      swap3\n      swap1\n      pop\n      jump\t// out\n        /* \"#utility.yul\":5155:6720   */\n    tag_31:\n        /* \"#utility.yul\":5289:5295   */\n      0x00\n        /* \"#utility.yul\":5297:5303   */\n      dup1\n        /* \"#utility.yul\":5305:5311   */\n      0x00\n        /* \"#utility.yul\":5313:5319   */\n      dup1\n        /* \"#utility.yul\":5321:5327   */\n      0x00\n        /* \"#utility.yul\":5329:5335   */\n      dup1\n        /* \"#utility.yul\":5337:5343   */\n      0x00\n        /* \"#utility.yul\":5345:5351   */\n      dup1\n        /* \"#utility.yul\":5394:5397   */\n      0x80\n        /* \"#utility.yul\":5382:5391   */\n      dup10\n        /* \"#utility.yul\":5373:5380   */\n      dup12\n        /* \"#utility.yul\":5369:5392   */\n      sub\n        /* \"#utility.yul\":5365:5398   */\n      slt\n        /* \"#utility.yul\":5362:5482   */\n      iszero\n      tag_222\n      jumpi\n        /* \"#utility.yul\":5401:5480   */\n      tag_223\n      tag_114\n      jump\t// in\n    tag_223:\n        /* \"#utility.yul\":5362:5482   */\n    tag_222:\n        /* \"#utility.yul\":5549:5550   */\n      0x00\n        /* \"#utility.yul\":5538:5547   */\n      dup10\n        /* \"#utility.yul\":5534:5551   */\n      add\n        /* \"#utility.yul\":5521:5552   */\n      calldataload\n        /* \"#utility.yul\":5579:5597   */\n      0xffffffffffffffff\n        /* \"#utility.yul\":5571:5577   */\n      dup2\n        /* \"#utility.yul\":5568:5598   */\n      gt\n        /* \"#utility.yul\":5565:5682   */\n      iszero\n      tag_224\n      jumpi\n        /* \"#utility.yul\":5601:5680   */\n      tag_225\n      tag_115\n      jump\t// in\n    tag_225:\n        /* \"#utility.yul\":5565:5682   */\n    tag_224:\n        /* \"#utility.yul\":5714:5779   */\n      tag_226\n        /* \"#utility.yul\":5771:5778   */\n      dup12\n        /* \"#utility.yul\":5762:5768   */\n      dup3\n        /* \"#utility.yul\":5751:5760   */\n      dup13\n        /* \"#utility.yul\":5747:5769   */\n      add\n        /* \"#utility.yul\":5714:5779   */\n      tag_133\n      jump\t// in\n    tag_226:\n        /* \"#utility.yul\":5696:5779   */\n      swap9\n      pop\n      swap9\n      pop\n        /* \"#utility.yul\":5492:5789   */\n      pop\n        /* \"#utility.yul\":5856:5858   */\n      0x20\n        /* \"#utility.yul\":5845:5854   */\n      dup10\n        /* \"#utility.yul\":5841:5859   */\n      add\n        /* \"#utility.yul\":5828:5860   */\n      calldataload\n        /* \"#utility.yul\":5887:5905   */\n      0xffffffffffffffff\n        /* \"#utility.yul\":5879:5885   */\n      dup2\n        /* \"#utility.yul\":5876:5906   */\n      gt\n        /* \"#utility.yul\":5873:5990   */\n      iszero\n      tag_227\n      jumpi\n        /* \"#utility.yul\":5909:5988   */\n      tag_228\n      tag_115\n      jump\t// in\n    tag_228:\n        /* \"#utility.yul\":5873:5990   */\n    tag_227:\n        /* \"#utility.yul\":6022:6087   */\n      tag_229\n        /* \"#utility.yul\":6079:6086   */\n      dup12\n        /* \"#utility.yul\":6070:6076   */\n      dup3\n        /* \"#utility.yul\":6059:6068   */\n      dup13\n        /* \"#utility.yul\":6055:6077   */\n      add\n        /* \"#utility.yul\":6022:6087   */\n      tag_133\n      jump\t// in\n    tag_229:\n        /* \"#utility.yul\":6004:6087   */\n      swap7\n      pop\n      swap7\n      pop\n        /* \"#utility.yul\":5799:6097   */\n      pop\n        /* \"#utility.yul\":6164:6166   */\n      0x40\n        /* \"#utility.yul\":6153:6162   */\n      dup10\n        /* \"#utility.yul\":6149:6167   */\n      add\n        /* \"#utility.yul\":6136:6168   */\n      calldataload\n        /* \"#utility.yul\":6195:6213   */\n      0xffffffffffffffff\n        /* \"#utility.yul\":6187:6193   */\n      dup2\n        /* \"#utility.yul\":6184:6214   */\n      gt\n        /* \"#utility.yul\":6181:6298   */\n      iszero\n      tag_230\n      jumpi\n        /* \"#utility.yul\":6217:6296   */\n      tag_231\n      tag_115\n      jump\t// in\n    tag_231:\n        /* \"#utility.yul\":6181:6298   */\n    tag_230:\n        /* \"#utility.yul\":6330:6395   */\n      tag_232\n        /* \"#utility.yul\":6387:6394   */\n      dup12\n        /* \"#utility.yul\":6378:6384   */\n      dup3\n        /* \"#utility.yul\":6367:6376   */\n      dup13\n        /* \"#utility.yul\":6363:6385   */\n      add\n        /* \"#utility.yul\":6330:6395   */\n      tag_133\n      jump\t// in\n    tag_232:\n        /* \"#utility.yul\":6312:6395   */\n      swap5\n      pop\n      swap5\n      pop\n        /* \"#utility.yul\":6107:6405   */\n      pop\n        /* \"#utility.yul\":6472:6474   */\n      0x60\n        /* \"#utility.yul\":6461:6470   */\n      dup10\n        /* \"#utility.yul\":6457:6475   */\n      add\n        /* \"#utility.yul\":6444:6476   */\n      calldataload\n        /* \"#utility.yul\":6503:6521   */\n      0xffffffffffffffff\n        /* \"#utility.yul\":6495:6501   */\n      dup2\n        /* \"#utility.yul\":6492:6522   */\n      gt\n        /* \"#utility.yul\":6489:6606   */\n      iszero\n      tag_233\n      jumpi\n        /* \"#utility.yul\":6525:6604   */\n      tag_234\n      tag_115\n      jump\t// in\n    tag_234:\n        /* \"#utility.yul\":6489:6606   */\n    tag_233:\n        /* \"#utility.yul\":6638:6703   */\n      tag_235\n        /* \"#utility.yul\":6695:6702   */\n      dup12\n        /* \"#utility.yul\":6686:6692   */\n      dup3\n        /* \"#utility.yul\":6675:6684   */\n      dup13\n        /* \"#utility.yul\":6671:6693   */\n      add\n        /* \"#utility.yul\":6638:6703   */\n      tag_133\n      jump\t// in\n    tag_235:\n        /* \"#utility.yul\":6620:6703   */\n      swap3\n      pop\n      swap3\n      pop\n        /* \"#utility.yul\":6415:6713   */\n      pop\n        /* \"#utility.yul\":5155:6720   */\n      swap3\n      swap6\n      swap9\n      pop\n      swap3\n      swap6\n      swap9\n      swap1\n      swap4\n      swap7\n      pop\n      jump\t// out\n        /* \"#utility.yul\":6726:6906   */\n    tag_134:\n        /* \"#utility.yul\":6774:6851   */\n      0x4e487b7100000000000000000000000000000000000000000000000000000000\n        /* \"#utility.yul\":6771:6772   */\n      0x00\n        /* \"#utility.yul\":6764:6852   */\n      mstore\n        /* \"#utility.yul\":6871:6875   */\n      0x22\n        /* \"#utility.yul\":6868:6869   */\n      0x04\n        /* \"#utility.yul\":6861:6876   */\n      mstore\n        /* \"#utility.yul\":6895:6899   */\n      0x24\n        /* \"#utility.yul\":6892:6893   */\n      0x00\n        /* \"#utility.yul\":6885:6900   */\n      revert\n        /* \"#utility.yul\":6912:7232   */\n    tag_37:\n        /* \"#utility.yul\":6956:6962   */\n      0x00\n        /* \"#utility.yul\":6993:6994   */\n      0x02\n        /* \"#utility.yul\":6987:6991   */\n      dup3\n        /* \"#utility.yul\":6983:6995   */\n      div\n        /* \"#utility.yul\":6973:6995   */\n      swap1\n      pop\n        /* \"#utility.yul\":7040:7041   */\n      0x01\n        /* \"#utility.yul\":7034:7038   */\n      dup3\n        /* \"#utility.yul\":7030:7042   */\n      and\n        /* \"#utility.yul\":7061:7079   */\n      dup1\n        /* \"#utility.yul\":7051:7132   */\n      tag_238\n      jumpi\n        /* \"#utility.yul\":7117:7121   */\n      0x7f\n        /* \"#utility.yul\":7109:7115   */\n      dup3\n        /* \"#utility.yul\":7105:7122   */\n      and\n        /* \"#utility.yul\":7095:7122   */\n      swap2\n      pop\n        /* \"#utility.yul\":7051:7132   */\n    tag_238:\n        /* \"#utility.yul\":7179:7181   */\n      0x20\n        /* \"#utility.yul\":7171:7177   */\n      dup3\n        /* \"#utility.yul\":7168:7182   */\n      lt\n        /* \"#utility.yul\":7148:7166   */\n      dup2\n        /* \"#utility.yul\":7145:7183   */\n      sub\n        /* \"#utility.yul\":7142:7226   */\n      tag_239\n      jumpi\n        /* \"#utility.yul\":7198:7216   */\n      tag_240\n      tag_134\n      jump\t// in\n    tag_240:\n        /* \"#utility.yul\":7142:7226   */\n    tag_239:\n        /* \"#utility.yul\":6963:7232   */\n      pop\n        /* \"#utility.yul\":6912:7232   */\n      swap2\n      swap1\n      pop\n      jump\t// out\n        /* \"#utility.yul\":7238:7414   */\n    tag_135:\n        /* \"#utility.yul\":7378:7406   */\n      0x596f7520646f206e6f742068617665207065726d697373696f6e000000000000\n        /* \"#utility.yul\":7374:7375   */\n      0x00\n        /* \"#utility.yul\":7366:7372   */\n      dup3\n        /* \"#utility.yul\":7362:7376   */\n      add\n        /* \"#utility.yul\":7355:7407   */\n      mstore\n        /* \"#utility.yul\":7238:7414   */\n      pop\n      jump\t// out\n        /* \"#utility.yul\":7420:7786   */\n    tag_136:\n        /* \"#utility.yul\":7562:7565   */\n      0x00\n        /* \"#utility.yul\":7583:7650   */\n      tag_243\n        /* \"#utility.yul\":7647:7649   */\n      0x1a\n        /* \"#utility.yul\":7642:7645   */\n      dup4\n        /* \"#utility.yul\":7583:7650   */\n      tag_123\n      jump\t// in\n    tag_243:\n        /* \"#utility.yul\":7576:7650   */\n      swap2\n      pop\n        /* \"#utility.yul\":7659:7752   */\n      tag_244\n        /* \"#utility.yul\":7748:7751   */\n      dup3\n        /* \"#utility.yul\":7659:7752   */\n      tag_135\n      jump\t// in\n    tag_244:\n        /* \"#utility.yul\":7777:7779   */\n      0x20\n        /* \"#utility.yul\":7772:7775   */\n      dup3\n        /* \"#utility.yul\":7768:7780   */\n      add\n        /* \"#utility.yul\":7761:7780   */\n      swap1\n      pop\n        /* \"#utility.yul\":7420:7786   */\n      swap2\n      swap1\n      pop\n      jump\t// out\n        /* \"#utility.yul\":7792:8211   */\n    tag_80:\n        /* \"#utility.yul\":7958:7962   */\n      0x00\n        /* \"#utility.yul\":7996:7998   */\n      0x20\n        /* \"#utility.yul\":7985:7994   */\n      dup3\n        /* \"#utility.yul\":7981:7999   */\n      add\n        /* \"#utility.yul\":7973:7999   */\n      swap1\n      pop\n        /* \"#utility.yul\":8045:8054   */\n      dup2\n        /* \"#utility.yul\":8039:8043   */\n      dup2\n        /* \"#utility.yul\":8035:8055   */\n      sub\n        /* \"#utility.yul\":8031:8032   */\n      0x00\n        /* \"#utility.yul\":8020:8029   */\n      dup4\n        /* \"#utility.yul\":8016:8033   */\n      add\n        /* \"#utility.yul\":8009:8056   */\n      mstore\n        /* \"#utility.yul\":8073:8204   */\n      tag_246\n        /* \"#utility.yul\":8199:8203   */\n      dup2\n        /* \"#utility.yul\":8073:8204   */\n      tag_136\n      jump\t// in\n    tag_246:\n        /* \"#utility.yul\":8065:8204   */\n      swap1\n      pop\n        /* \"#utility.yul\":7792:8211   */\n      swap2\n      swap1\n      pop\n      jump\t// out\n        /* \"#utility.yul\":8217:8390   */\n    tag_137:\n        /* \"#utility.yul\":8357:8382   */\n      0x546869732063616d706169676e20697320636c6f736564000000000000000000\n        /* \"#utility.yul\":8353:8354   */\n      0x00\n        /* \"#utility.yul\":8345:8351   */\n      dup3\n        /* \"#utility.yul\":8341:8355   */\n      add\n        /* \"#utility.yul\":8334:8383   */\n      mstore\n        /* \"#utility.yul\":8217:8390   */\n      pop\n      jump\t// out\n        /* \"#utility.yul\":8396:8762   */\n    tag_138:\n        /* \"#utility.yul\":8538:8541   */\n      0x00\n        /* \"#utility.yul\":8559:8626   */\n      tag_249\n        /* \"#utility.yul\":8623:8625   */\n      0x17\n        /* \"#utility.yul\":8618:8621   */\n      dup4\n        /* \"#utility.yul\":8559:8626   */\n      tag_123\n      jump\t// in\n    tag_249:\n        /* \"#utility.yul\":8552:8626   */\n      swap2\n      pop\n        /* \"#utility.yul\":8635:8728   */\n      tag_250\n        /* \"#utility.yul\":8724:8727   */\n      dup3\n        /* \"#utility.yul\":8635:8728   */\n      tag_137\n      jump\t// in\n    tag_250:\n        /* \"#utility.yul\":8753:8755   */\n      0x20\n        /* \"#utility.yul\":8748:8751   */\n      dup3\n        /* \"#utility.yul\":8744:8756   */\n      add\n        /* \"#utility.yul\":8737:8756   */\n      swap1\n      pop\n        /* \"#utility.yul\":8396:8762   */\n      swap2\n      swap1\n      pop\n      jump\t// out\n        /* \"#utility.yul\":8768:9187   */\n    tag_83:\n        /* \"#utility.yul\":8934:8938   */\n      0x00\n        /* \"#utility.yul\":8972:8974   */\n      0x20\n        /* \"#utility.yul\":8961:8970   */\n      dup3\n        /* \"#utility.yul\":8957:8975   */\n      add\n        /* \"#utility.yul\":8949:8975   */\n      swap1\n      pop\n        /* \"#utility.yul\":9021:9030   */\n      dup2\n        /* \"#utility.yul\":9015:9019   */\n      dup2\n        /* \"#utility.yul\":9011:9031   */\n      sub\n        /* \"#utility.yul\":9007:9008   */\n      0x00\n        /* \"#utility.yul\":8996:9005   */\n      dup4\n        /* \"#utility.yul\":8992:9009   */\n      add\n        /* \"#utility.yul\":8985:9032   */\n      mstore\n        /* \"#utility.yul\":9049:9180   */\n      tag_252\n        /* \"#utility.yul\":9175:9179   */\n      dup2\n        /* \"#utility.yul\":9049:9180   */\n      tag_138\n      jump\t// in\n    tag_252:\n        /* \"#utility.yul\":9041:9180   */\n      swap1\n      pop\n        /* \"#utility.yul\":8768:9187   */\n      swap2\n      swap1\n      pop\n      jump\t// out\n        /* \"#utility.yul\":9193:9420   */\n    tag_139:\n        /* \"#utility.yul\":9333:9367   */\n      0x546869732063616d706169676e20646f206e6f74206861766520656e6f756768\n        /* \"#utility.yul\":9329:9330   */\n      0x00\n        /* \"#utility.yul\":9321:9327   */\n      dup3\n        /* \"#utility.yul\":9317:9331   */\n      add\n        /* \"#utility.yul\":9310:9368   */\n      mstore\n        /* \"#utility.yul\":9402:9412   */\n      0x2062616c616e6365000000000000000000000000000000000000000000000000\n        /* \"#utility.yul\":9397:9399   */\n      0x20\n        /* \"#utility.yul\":9389:9395   */\n      dup3\n        /* \"#utility.yul\":9385:9400   */\n      add\n        /* \"#utility.yul\":9378:9413   */\n      mstore\n        /* \"#utility.yul\":9193:9420   */\n      pop\n      jump\t// out\n        /* \"#utility.yul\":9426:9792   */\n    tag_140:\n        /* \"#utility.yul\":9568:9571   */\n      0x00\n        /* \"#utility.yul\":9589:9656   */\n      tag_255\n        /* \"#utility.yul\":9653:9655   */\n      0x28\n        /* \"#utility.yul\":9648:9651   */\n      dup4\n        /* \"#utility.yul\":9589:9656   */\n      tag_123\n      jump\t// in\n    tag_255:\n        /* \"#utility.yul\":9582:9656   */\n      swap2\n      pop\n        /* \"#utility.yul\":9665:9758   */\n      tag_256\n        /* \"#utility.yul\":9754:9757   */\n      dup3\n        /* \"#utility.yul\":9665:9758   */\n      tag_139\n      jump\t// in\n    tag_256:\n        /* \"#utility.yul\":9783:9785   */\n      0x40\n        /* \"#utility.yul\":9778:9781   */\n      dup3\n        /* \"#utility.yul\":9774:9786   */\n      add\n        /* \"#utility.yul\":9767:9786   */\n      swap1\n      pop\n        /* \"#utility.yul\":9426:9792   */\n      swap2\n      swap1\n      pop\n      jump\t// out\n        /* \"#utility.yul\":9798:10217   */\n    tag_86:\n        /* \"#utility.yul\":9964:9968   */\n      0x00\n        /* \"#utility.yul\":10002:10004   */\n      0x20\n        /* \"#utility.yul\":9991:10000   */\n      dup3\n        /* \"#utility.yul\":9987:10005   */\n      add\n        /* \"#utility.yul\":9979:10005   */\n      swap1\n      pop\n        /* \"#utility.yul\":10051:10060   */\n      dup2\n        /* \"#utility.yul\":10045:10049   */\n      dup2\n        /* \"#utility.yul\":10041:10061   */\n      sub\n        /* \"#utility.yul\":10037:10038   */\n      0x00\n        /* \"#utility.yul\":10026:10035   */\n      dup4\n        /* \"#utility.yul\":10022:10039   */\n      add\n        /* \"#utility.yul\":10015:10062   */\n      mstore\n        /* \"#utility.yul\":10079:10210   */\n      tag_258\n        /* \"#utility.yul\":10205:10209   */\n      dup2\n        /* \"#utility.yul\":10079:10210   */\n      tag_140\n      jump\t// in\n    tag_258:\n        /* \"#utility.yul\":10071:10210   */\n      swap1\n      pop\n        /* \"#utility.yul\":9798:10217   */\n      swap2\n      swap1\n      pop\n      jump\t// out\n        /* \"#utility.yul\":10223:10403   */\n    tag_141:\n        /* \"#utility.yul\":10271:10348   */\n      0x4e487b7100000000000000000000000000000000000000000000000000000000\n        /* \"#utility.yul\":10268:10269   */\n      0x00\n        /* \"#utility.yul\":10261:10349   */\n      mstore\n        /* \"#utility.yul\":10368:10372   */\n      0x11\n        /* \"#utility.yul\":10365:10366   */\n      0x04\n        /* \"#utility.yul\":10358:10373   */\n      mstore\n        /* \"#utility.yul\":10392:10396   */\n      0x24\n        /* \"#utility.yul\":10389:10390   */\n      0x00\n        /* \"#utility.yul\":10382:10397   */\n      revert\n        /* \"#utility.yul\":10409:10603   */\n    tag_88:\n        /* \"#utility.yul\":10449:10453   */\n      0x00\n        /* \"#utility.yul\":10469:10489   */\n      tag_261\n        /* \"#utility.yul\":10487:10488   */\n      dup3\n        /* \"#utility.yul\":10469:10489   */\n      tag_116\n      jump\t// in\n    tag_261:\n        /* \"#utility.yul\":10464:10489   */\n      swap2\n      pop\n        /* \"#utility.yul\":10503:10523   */\n      tag_262\n        /* \"#utility.yul\":10521:10522   */\n      dup4\n        /* \"#utility.yul\":10503:10523   */\n      tag_116\n      jump\t// in\n    tag_262:\n        /* \"#utility.yul\":10498:10523   */\n      swap3\n      pop\n        /* \"#utility.yul\":10547:10548   */\n      dup3\n        /* \"#utility.yul\":10544:10545   */\n      dup3\n        /* \"#utility.yul\":10540:10549   */\n      sub\n        /* \"#utility.yul\":10532:10549   */\n      swap1\n      pop\n        /* \"#utility.yul\":10571:10572   */\n      dup2\n        /* \"#utility.yul\":10565:10569   */\n      dup2\n        /* \"#utility.yul\":10562:10573   */\n      gt\n        /* \"#utility.yul\":10559:10596   */\n      iszero\n      tag_263\n      jumpi\n        /* \"#utility.yul\":10576:10594   */\n      tag_264\n      tag_141\n      jump\t// in\n    tag_264:\n        /* \"#utility.yul\":10559:10596   */\n    tag_263:\n        /* \"#utility.yul\":10409:10603   */\n      swap3\n      swap2\n      pop\n      pop\n      jump\t// out\n        /* \"#utility.yul\":10609:10756   */\n    tag_142:\n        /* \"#utility.yul\":10710:10721   */\n      0x00\n        /* \"#utility.yul\":10747:10750   */\n      dup2\n        /* \"#utility.yul\":10732:10750   */\n      swap1\n      pop\n        /* \"#utility.yul\":10609:10756   */\n      swap3\n      swap2\n      pop\n      pop\n      jump\t// out\n        /* \"#utility.yul\":10762:10876   */\n    tag_143:\n      pop\n      jump\t// out\n        /* \"#utility.yul\":10882:11280   */\n    tag_144:\n        /* \"#utility.yul\":11041:11044   */\n      0x00\n        /* \"#utility.yul\":11062:11145   */\n      tag_268\n        /* \"#utility.yul\":11143:11144   */\n      0x00\n        /* \"#utility.yul\":11138:11141   */\n      dup4\n        /* \"#utility.yul\":11062:11145   */\n      tag_142\n      jump\t// in\n    tag_268:\n        /* \"#utility.yul\":11055:11145   */\n      swap2\n      pop\n        /* \"#utility.yul\":11154:11247   */\n      tag_269\n        /* \"#utility.yul\":11243:11246   */\n      dup3\n        /* \"#utility.yul\":11154:11247   */\n      tag_143\n      jump\t// in\n    tag_269:\n        /* \"#utility.yul\":11272:11273   */\n      0x00\n        /* \"#utility.yul\":11267:11270   */\n      dup3\n        /* \"#utility.yul\":11263:11274   */\n      add\n        /* \"#utility.yul\":11256:11274   */\n      swap1\n      pop\n        /* \"#utility.yul\":10882:11280   */\n      swap2\n      swap1\n      pop\n      jump\t// out\n        /* \"#utility.yul\":11286:11665   */\n    tag_90:\n        /* \"#utility.yul\":11470:11473   */\n      0x00\n        /* \"#utility.yul\":11492:11639   */\n      tag_271\n        /* \"#utility.yul\":11635:11638   */\n      dup3\n        /* \"#utility.yul\":11492:11639   */\n      tag_144\n      jump\t// in\n    tag_271:\n        /* \"#utility.yul\":11485:11639   */\n      swap2\n      pop\n        /* \"#utility.yul\":11656:11659   */\n      dup2\n        /* \"#utility.yul\":11649:11659   */\n      swap1\n      pop\n        /* \"#utility.yul\":11286:11665   */\n      swap2\n      swap1\n      pop\n      jump\t// out\n        /* \"#utility.yul\":11671:11904   */\n    tag_98:\n        /* \"#utility.yul\":11710:11713   */\n      0x00\n        /* \"#utility.yul\":11733:11757   */\n      tag_273\n        /* \"#utility.yul\":11751:11756   */\n      dup3\n        /* \"#utility.yul\":11733:11757   */\n      tag_116\n      jump\t// in\n    tag_273:\n        /* \"#utility.yul\":11724:11757   */\n      swap2\n      pop\n        /* \"#utility.yul\":11779:11845   */\n      0xffffffffffffffffffffffffffffffffffffffffffffffffffffffffffffffff\n        /* \"#utility.yul\":11772:11777   */\n      dup3\n        /* \"#utility.yul\":11769:11846   */\n      sub\n        /* \"#utility.yul\":11766:11869   */\n      tag_274\n      jumpi\n        /* \"#utility.yul\":11849:11867   */\n      tag_275\n      tag_141\n      jump\t// in\n    tag_275:\n        /* \"#utility.yul\":11766:11869   */\n    tag_274:\n        /* \"#utility.yul\":11896:11897   */\n      0x01\n        /* \"#utility.yul\":11889:11894   */\n      dup3\n        /* \"#utility.yul\":11885:11898   */\n      add\n        /* \"#utility.yul\":11878:11898   */\n      swap1\n      pop\n        /* \"#utility.yul\":11671:11904   */\n      swap2\n      swap1\n      pop\n      jump\t// out\n        /* \"#utility.yul\":11910:12090   */\n    tag_145:\n        /* \"#utility.yul\":11958:12035   */\n      0x4e487b7100000000000000000000000000000000000000000000000000000000\n        /* \"#utility.yul\":11955:11956   */\n      0x00\n        /* \"#utility.yul\":11948:12036   */\n      mstore\n        /* \"#utility.yul\":12055:12059   */\n      0x41\n        /* \"#utility.yul\":12052:12053   */\n      0x04\n        /* \"#utility.yul\":12045:12060   */\n      mstore\n        /* \"#utility.yul\":12079:12083   */\n      0x24\n        /* \"#utility.yul\":12076:12077   */\n      0x00\n        /* \"#utility.yul\":12069:12084   */\n      revert\n        /* \"#utility.yul\":12096:12237   */\n    tag_146:\n        /* \"#utility.yul\":12145:12149   */\n      0x00\n        /* \"#utility.yul\":12168:12171   */\n      dup2\n        /* \"#utility.yul\":12160:12171   */\n      swap1\n      pop\n        /* \"#utility.yul\":12191:12194   */\n      dup2\n        /* \"#utility.yul\":12188:12189   */\n      0x00\n        /* \"#utility.yul\":12181:12195   */\n      mstore\n        /* \"#utility.yul\":12225:12229   */\n      0x20\n        /* \"#utility.yul\":12222:12223   */\n      0x00\n        /* \"#utility.yul\":12212:12230   */\n      keccak256\n        /* \"#utility.yul\":12204:12230   */\n      swap1\n      pop\n        /* \"#utility.yul\":12096:12237   */\n      swap2\n      swap1\n      pop\n      jump\t// out\n        /* \"#utility.yul\":12243:12336   */\n    tag_147:\n        /* \"#utility.yul\":12280:12286   */\n      0x00\n        /* \"#utility.yul\":12327:12329   */\n      0x20\n        /* \"#utility.yul\":12322:12324   */\n      0x1f\n        /* \"#utility.yul\":12315:12320   */\n      dup4\n        /* \"#utility.yul\":12311:12325   */\n      add\n        /* \"#utility.yul\":12307:12330   */\n      div\n        /* \"#utility.yul\":12297:12330   */\n      swap1\n      pop\n        /* \"#utility.yul\":12243:12336   */\n      swap2\n      swap1\n      pop\n      jump\t// out\n        /* \"#utility.yul\":12342:12449   */\n    tag_148:\n        /* \"#utility.yul\":12386:12394   */\n      0x00\n        /* \"#utility.yul\":12436:12441   */\n      dup3\n        /* \"#utility.yul\":12430:12434   */\n      dup3\n        /* \"#utility.yul\":12426:12442   */\n      shl\n        /* \"#utility.yul\":12405:12442   */\n      swap1\n      pop\n        /* \"#utility.yul\":12342:12449   */\n      swap3\n      swap2\n      pop\n      pop\n      jump\t// out\n        /* \"#utility.yul\":12455:12848   */\n    tag_149:\n        /* \"#utility.yul\":12524:12530   */\n      0x00\n        /* \"#utility.yul\":12574:12575   */\n      0x08\n        /* \"#utility.yul\":12562:12572   */\n      dup4\n        /* \"#utility.yul\":12558:12576   */\n      mul\n        /* \"#utility.yul\":12597:12694   */\n      tag_281\n        /* \"#utility.yul\":12627:12693   */\n      0xffffffffffffffffffffffffffffffffffffffffffffffffffffffffffffffff\n        /* \"#utility.yul\":12616:12625   */\n      dup3\n        /* \"#utility.yul\":12597:12694   */\n      tag_148\n      jump\t// in\n    tag_281:\n        /* \"#utility.yul\":12715:12754   */\n      tag_282\n        /* \"#utility.yul\":12745:12753   */\n      dup7\n        /* \"#utility.yul\":12734:12743   */\n      dup4\n        /* \"#utility.yul\":12715:12754   */\n      tag_148\n      jump\t// in\n    tag_282:\n        /* \"#utility.yul\":12703:12754   */\n      swap6\n      pop\n        /* \"#utility.yul\":12787:12791   */\n      dup1\n        /* \"#utility.yul\":12783:12792   */\n      not\n        /* \"#utility.yul\":12776:12781   */\n      dup5\n        /* \"#utility.yul\":12772:12793   */\n      and\n        /* \"#utility.yul\":12763:12793   */\n      swap4\n      pop\n        /* \"#utility.yul\":12836:12840   */\n      dup1\n        /* \"#utility.yul\":12826:12834   */\n      dup7\n        /* \"#utility.yul\":12822:12841   */\n      and\n        /* \"#utility.yul\":12815:12820   */\n      dup5\n        /* \"#utility.yul\":12812:12842   */\n      or\n        /* \"#utility.yul\":12802:12842   */\n      swap3\n      pop\n        /* \"#utility.yul\":12531:12848   */\n      pop\n      pop\n        /* \"#utility.yul\":12455:12848   */\n      swap4\n      swap3\n      pop\n      pop\n      pop\n      jump\t// out\n        /* \"#utility.yul\":12854:12914   */\n    tag_150:\n        /* \"#utility.yul\":12882:12885   */\n      0x00\n        /* \"#utility.yul\":12903:12908   */\n      dup2\n        /* \"#utility.yul\":12896:12908   */\n      swap1\n      pop\n        /* \"#utility.yul\":12854:12914   */\n      swap2\n      swap1\n      pop\n      jump\t// out\n        /* \"#utility.yul\":12920:13062   */\n    tag_151:\n        /* \"#utility.yul\":12970:12979   */\n      0x00\n        /* \"#utility.yul\":13003:13056   */\n      tag_285\n        /* \"#utility.yul\":13021:13055   */\n      tag_286\n        /* \"#utility.yul\":13030:13054   */\n      tag_287\n        /* \"#utility.yul\":13048:13053   */\n      dup5\n        /* \"#utility.yul\":13030:13054   */\n      tag_116\n      jump\t// in\n    tag_287:\n        /* \"#utility.yul\":13021:13055   */\n      tag_150\n      jump\t// in\n    tag_286:\n        /* \"#utility.yul\":13003:13056   */\n      tag_116\n      jump\t// in\n    tag_285:\n        /* \"#utility.yul\":12990:13056   */\n      swap1\n      pop\n        /* \"#utility.yul\":12920:13062   */\n      swap2\n      swap1\n      pop\n      jump\t// out\n        /* \"#utility.yul\":13068:13143   */\n    tag_152:\n        /* \"#utility.yul\":13111:13114   */\n      0x00\n        /* \"#utility.yul\":13132:13137   */\n      dup2\n        /* \"#utility.yul\":13125:13137   */\n      swap1\n      pop\n        /* \"#utility.yul\":13068:13143   */\n      swap2\n      swap1\n      pop\n      jump\t// out\n        /* \"#utility.yul\":13149:13418   */\n    tag_153:\n        /* \"#utility.yul\":13259:13298   */\n      tag_290\n        /* \"#utility.yul\":13290:13297   */\n      dup4\n        /* \"#utility.yul\":13259:13298   */\n      tag_151\n      jump\t// in\n    tag_290:\n        /* \"#utility.yul\":13320:13411   */\n      tag_291\n        /* \"#utility.yul\":13369:13410   */\n      tag_292\n        /* \"#utility.yul\":13393:13409   */\n      dup3\n        /* \"#utility.yul\":13369:13410   */\n      tag_152\n      jump\t// in\n    tag_292:\n        /* \"#utility.yul\":13361:13367   */\n      dup5\n        /* \"#utility.yul\":13354:13358   */\n      dup5\n        /* \"#utility.yul\":13348:13359   */\n      sload\n        /* \"#utility.yul\":13320:13411   */\n      tag_149\n      jump\t// in\n    tag_291:\n        /* \"#utility.yul\":13314:13318   */\n      dup3\n        /* \"#utility.yul\":13307:13412   */\n      sstore\n        /* \"#utility.yul\":13225:13418   */\n      pop\n        /* \"#utility.yul\":13149:13418   */\n      pop\n      pop\n      pop\n      jump\t// out\n        /* \"#utility.yul\":13424:13497   */\n    tag_154:\n        /* \"#utility.yul\":13469:13472   */\n      0x00\n        /* \"#utility.yul\":13424:13497   */\n      swap1\n      jump\t// out\n        /* \"#utility.yul\":13503:13692   */\n    tag_155:\n        /* \"#utility.yul\":13580:13612   */\n      tag_295\n      tag_154\n      jump\t// in\n    tag_295:\n        /* \"#utility.yul\":13621:13686   */\n      tag_296\n        /* \"#utility.yul\":13679:13685   */\n      dup2\n        /* \"#utility.yul\":13671:13677   */\n      dup5\n        /* \"#utility.yul\":13665:13669   */\n      dup5\n        /* \"#utility.yul\":13621:13686   */\n      tag_153\n      jump\t// in\n    tag_296:\n        /* \"#utility.yul\":13556:13692   */\n      pop\n        /* \"#utility.yul\":13503:13692   */\n      pop\n      pop\n      jump\t// out\n        /* \"#utility.yul\":13698:13884   */\n    tag_156:\n        /* \"#utility.yul\":13758:13878   */\n    tag_298:\n        /* \"#utility.yul\":13775:13778   */\n      dup2\n        /* \"#utility.yul\":13768:13773   */\n      dup2\n        /* \"#utility.yul\":13765:13779   */\n      lt\n        /* \"#utility.yul\":13758:13878   */\n      iszero\n      tag_300\n      jumpi\n        /* \"#utility.yul\":13829:13868   */\n      tag_301\n        /* \"#utility.yul\":13866:13867   */\n      0x00\n        /* \"#utility.yul\":13859:13864   */\n      dup3\n        /* \"#utility.yul\":13829:13868   */\n      tag_155\n      jump\t// in\n    tag_301:\n        /* \"#utility.yul\":13802:13803   */\n      0x01\n        /* \"#utility.yul\":13795:13800   */\n      dup2\n        /* \"#utility.yul\":13791:13804   */\n      add\n        /* \"#utility.yul\":13782:13804   */\n      swap1\n      pop\n        /* \"#utility.yul\":13758:13878   */\n      jump(tag_298)\n    tag_300:\n        /* \"#utility.yul\":13698:13884   */\n      pop\n      pop\n      jump\t// out\n        /* \"#utility.yul\":13890:14433   */\n    tag_157:\n        /* \"#utility.yul\":13991:13993   */\n      0x1f\n        /* \"#utility.yul\":13986:13989   */\n      dup3\n        /* \"#utility.yul\":13983:13994   */\n      gt\n        /* \"#utility.yul\":13980:14426   */\n      iszero\n      tag_303\n      jumpi\n        /* \"#utility.yul\":14025:14063   */\n      tag_304\n        /* \"#utility.yul\":14057:14062   */\n      dup2\n        /* \"#utility.yul\":14025:14063   */\n      tag_146\n      jump\t// in\n    tag_304:\n        /* \"#utility.yul\":14109:14138   */\n      tag_305\n        /* \"#utility.yul\":14127:14137   */\n      dup5\n        /* \"#utility.yul\":14109:14138   */\n      tag_147\n      jump\t// in\n    tag_305:\n        /* \"#utility.yul\":14099:14107   */\n      dup2\n        /* \"#utility.yul\":14095:14139   */\n      add\n        /* \"#utility.yul\":14292:14294   */\n      0x20\n        /* \"#utility.yul\":14280:14290   */\n      dup6\n        /* \"#utility.yul\":14277:14295   */\n      lt\n        /* \"#utility.yul\":14274:14323   */\n      iszero\n      tag_306\n      jumpi\n        /* \"#utility.yul\":14313:14321   */\n      dup2\n        /* \"#utility.yul\":14298:14321   */\n      swap1\n      pop\n        /* \"#utility.yul\":14274:14323   */\n    tag_306:\n        /* \"#utility.yul\":14336:14416   */\n      tag_307\n        /* \"#utility.yul\":14392:14414   */\n      tag_308\n        /* \"#utility.yul\":14410:14413   */\n      dup6\n        /* \"#utility.yul\":14392:14414   */\n      tag_147\n      jump\t// in\n    tag_308:\n        /* \"#utility.yul\":14382:14390   */\n      dup4\n        /* \"#utility.yul\":14378:14415   */\n      add\n        /* \"#utility.yul\":14365:14376   */\n      dup3\n        /* \"#utility.yul\":14336:14416   */\n      tag_156\n      jump\t// in\n    tag_307:\n        /* \"#utility.yul\":13995:14426   */\n      pop\n      pop\n        /* \"#utility.yul\":13980:14426   */\n    tag_303:\n        /* \"#utility.yul\":13890:14433   */\n      pop\n      pop\n      pop\n      jump\t// out\n        /* \"#utility.yul\":14439:14556   */\n    tag_158:\n        /* \"#utility.yul\":14493:14501   */\n      0x00\n        /* \"#utility.yul\":14543:14548   */\n      dup3\n        /* \"#utility.yul\":14537:14541   */\n      dup3\n        /* \"#utility.yul\":14533:14549   */\n      shr\n        /* \"#utility.yul\":14512:14549   */\n      swap1\n      pop\n        /* \"#utility.yul\":14439:14556   */\n      swap3\n      swap2\n      pop\n      pop\n      jump\t// out\n        /* \"#utility.yul\":14562:14731   */\n    tag_159:\n        /* \"#utility.yul\":14606:14612   */\n      0x00\n        /* \"#utility.yul\":14639:14690   */\n      tag_311\n        /* \"#utility.yul\":14687:14688   */\n      0x00\n        /* \"#utility.yul\":14683:14689   */\n      not\n        /* \"#utility.yul\":14675:14680   */\n      dup5\n        /* \"#utility.yul\":14672:14673   */\n      0x08\n        /* \"#utility.yul\":14668:14681   */\n      mul\n        /* \"#utility.yul\":14639:14690   */\n      tag_158\n      jump\t// in\n    tag_311:\n        /* \"#utility.yul\":14635:14691   */\n      not\n        /* \"#utility.yul\":14720:14724   */\n      dup1\n        /* \"#utility.yul\":14714:14718   */\n      dup4\n        /* \"#utility.yul\":14710:14725   */\n      and\n        /* \"#utility.yul\":14700:14725   */\n      swap2\n      pop\n        /* \"#utility.yul\":14613:14731   */\n      pop\n        /* \"#utility.yul\":14562:14731   */\n      swap3\n      swap2\n      pop\n      pop\n      jump\t// out\n        /* \"#utility.yul\":14736:15031   */\n    tag_160:\n        /* \"#utility.yul\":14812:14816   */\n      0x00\n        /* \"#utility.yul\":14958:14987   */\n      tag_313\n        /* \"#utility.yul\":14983:14986   */\n      dup4\n        /* \"#utility.yul\":14977:14981   */\n      dup4\n        /* \"#utility.yul\":14958:14987   */\n      tag_159\n      jump\t// in\n    tag_313:\n        /* \"#utility.yul\":14950:14987   */\n      swap2\n      pop\n        /* \"#utility.yul\":15020:15023   */\n      dup3\n        /* \"#utility.yul\":15017:15018   */\n      0x02\n        /* \"#utility.yul\":15013:15024   */\n      mul\n        /* \"#utility.yul\":15007:15011   */\n      dup3\n        /* \"#utility.yul\":15004:15025   */\n      or\n        /* \"#utility.yul\":14996:15025   */\n      swap1\n      pop\n        /* \"#utility.yul\":14736:15031   */\n      swap3\n      swap2\n      pop\n      pop\n      jump\t// out\n        /* \"#utility.yul\":15036:16431   */\n    tag_100:\n        /* \"#utility.yul\":15153:15190   */\n      tag_315\n        /* \"#utility.yul\":15186:15189   */\n      dup3\n        /* \"#utility.yul\":15153:15190   */\n      tag_122\n      jump\t// in\n    tag_315:\n        /* \"#utility.yul\":15255:15273   */\n      0xffffffffffffffff\n        /* \"#utility.yul\":15247:15253   */\n      dup2\n        /* \"#utility.yul\":15244:15274   */\n      gt\n        /* \"#utility.yul\":15241:15297   */\n      iszero\n      tag_316\n      jumpi\n        /* \"#utility.yul\":15277:15295   */\n      tag_317\n      tag_145\n      jump\t// in\n    tag_317:\n        /* \"#utility.yul\":15241:15297   */\n    tag_316:\n        /* \"#utility.yul\":15321:15359   */\n      tag_318\n        /* \"#utility.yul\":15353:15357   */\n      dup3\n        /* \"#utility.yul\":15347:15358   */\n      sload\n        /* \"#utility.yul\":15321:15359   */\n      tag_37\n      jump\t// in\n    tag_318:\n        /* \"#utility.yul\":15406:15473   */\n      tag_319\n        /* \"#utility.yul\":15466:15472   */\n      dup3\n        /* \"#utility.yul\":15458:15464   */\n      dup3\n        /* \"#utility.yul\":15452:15456   */\n      dup6\n        /* \"#utility.yul\":15406:15473   */\n      tag_157\n      jump\t// in\n    tag_319:\n        /* \"#utility.yul\":15500:15501   */\n      0x00\n        /* \"#utility.yul\":15524:15528   */\n      0x20\n        /* \"#utility.yul\":15511:15528   */\n      swap1\n      pop\n        /* \"#utility.yul\":15556:15558   */\n      0x1f\n        /* \"#utility.yul\":15548:15554   */\n      dup4\n        /* \"#utility.yul\":15545:15559   */\n      gt\n        /* \"#utility.yul\":15573:15574   */\n      0x01\n        /* \"#utility.yul\":15568:16186   */\n      dup2\n      eq\n      tag_321\n      jumpi\n        /* \"#utility.yul\":16230:16231   */\n      0x00\n        /* \"#utility.yul\":16247:16253   */\n      dup5\n        /* \"#utility.yul\":16244:16321   */\n      iszero\n      tag_322\n      jumpi\n        /* \"#utility.yul\":16296:16305   */\n      dup3\n        /* \"#utility.yul\":16291:16294   */\n      dup8\n        /* \"#utility.yul\":16287:16306   */\n      add\n        /* \"#utility.yul\":16281:16307   */\n      mload\n        /* \"#utility.yul\":16272:16307   */\n      swap1\n      pop\n        /* \"#utility.yul\":16244:16321   */\n    tag_322:\n        /* \"#utility.yul\":16347:16414   */\n      tag_323\n        /* \"#utility.yul\":16407:16413   */\n      dup6\n        /* \"#utility.yul\":16400:16405   */\n      dup3\n        /* \"#utility.yul\":16347:16414   */\n      tag_160\n      jump\t// in\n    tag_323:\n        /* \"#utility.yul\":16341:16345   */\n      dup7\n        /* \"#utility.yul\":16334:16415   */\n      sstore\n        /* \"#utility.yul\":16203:16425   */\n      pop\n        /* \"#utility.yul\":15538:16425   */\n      jump(tag_320)\n        /* \"#utility.yul\":15568:16186   */\n    tag_321:\n        /* \"#utility.yul\":15620:15624   */\n      0x1f\n        /* \"#utility.yul\":15616:15625   */\n      not\n        /* \"#utility.yul\":15608:15614   */\n      dup5\n        /* \"#utility.yul\":15604:15626   */\n      and\n        /* \"#utility.yul\":15654:15691   */\n      tag_324\n        /* \"#utility.yul\":15686:15690   */\n      dup7\n        /* \"#utility.yul\":15654:15691   */\n      tag_146\n      jump\t// in\n    tag_324:\n        /* \"#utility.yul\":15713:15714   */\n      0x00\n        /* \"#utility.yul\":15727:15935   */\n    tag_325:\n        /* \"#utility.yul\":15741:15748   */\n      dup3\n        /* \"#utility.yul\":15738:15739   */\n      dup2\n        /* \"#utility.yul\":15735:15749   */\n      lt\n        /* \"#utility.yul\":15727:15935   */\n      iszero\n      tag_327\n      jumpi\n        /* \"#utility.yul\":15820:15829   */\n      dup5\n        /* \"#utility.yul\":15815:15818   */\n      dup10\n        /* \"#utility.yul\":15811:15830   */\n      add\n        /* \"#utility.yul\":15805:15831   */\n      mload\n        /* \"#utility.yul\":15797:15803   */\n      dup3\n        /* \"#utility.yul\":15790:15832   */\n      sstore\n        /* \"#utility.yul\":15871:15872   */\n      0x01\n        /* \"#utility.yul\":15863:15869   */\n      dup3\n        /* \"#utility.yul\":15859:15873   */\n      add\n        /* \"#utility.yul\":15849:15873   */\n      swap2\n      pop\n        /* \"#utility.yul\":15918:15920   */\n      0x20\n        /* \"#utility.yul\":15907:15916   */\n      dup6\n        /* \"#utility.yul\":15903:15921   */\n      add\n        /* \"#utility.yul\":15890:15921   */\n      swap5\n      pop\n        /* \"#utility.yul\":15764:15768   */\n      0x20\n        /* \"#utility.yul\":15761:15762   */\n      dup2\n        /* \"#utility.yul\":15757:15769   */\n      add\n        /* \"#utility.yul\":15752:15769   */\n      swap1\n      pop\n        /* \"#utility.yul\":15727:15935   */\n      jump(tag_325)\n    tag_327:\n        /* \"#utility.yul\":15963:15969   */\n      dup7\n        /* \"#utility.yul\":15954:15961   */\n      dup4\n        /* \"#utility.yul\":15951:15970   */\n      lt\n        /* \"#utility.yul\":15948:16127   */\n      iszero\n      tag_328\n      jumpi\n        /* \"#utility.yul\":16021:16030   */\n      dup5\n        /* \"#utility.yul\":16016:16019   */\n      dup10\n        /* \"#utility.yul\":16012:16031   */\n      add\n        /* \"#utility.yul\":16006:16032   */\n      mload\n        /* \"#utility.yul\":16064:16112   */\n      tag_329\n        /* \"#utility.yul\":16106:16110   */\n      0x1f\n        /* \"#utility.yul\":16098:16104   */\n      dup10\n        /* \"#utility.yul\":16094:16111   */\n      and\n        /* \"#utility.yul\":16083:16092   */\n      dup3\n        /* \"#utility.yul\":16064:16112   */\n      tag_159\n      jump\t// in\n    tag_329:\n        /* \"#utility.yul\":16056:16062   */\n      dup4\n        /* \"#utility.yul\":16049:16113   */\n      sstore\n        /* \"#utility.yul\":15971:16127   */\n      pop\n        /* \"#utility.yul\":15948:16127   */\n    tag_328:\n        /* \"#utility.yul\":16173:16174   */\n      0x01\n        /* \"#utility.yul\":16169:16170   */\n      0x02\n        /* \"#utility.yul\":16161:16167   */\n      dup9\n        /* \"#utility.yul\":16157:16171   */\n      mul\n        /* \"#utility.yul\":16153:16175   */\n      add\n        /* \"#utility.yul\":16147:16151   */\n      dup9\n        /* \"#utility.yul\":16140:16176   */\n      sstore\n        /* \"#utility.yul\":15575:16186   */\n      pop\n      pop\n      pop\n        /* \"#utility.yul\":15538:16425   */\n    tag_320:\n      pop\n        /* \"#utility.yul\":15128:16431   */\n      pop\n      pop\n      pop\n        /* \"#utility.yul\":15036:16431   */\n      pop\n      pop\n      jump\t// out\n        /* \"#utility.yul\":16437:16658   */\n    tag_161:\n        /* \"#utility.yul\":16577:16611   */\n      0x596f75206d7573742073656e64206120646f6e6174696f6e2076616c7565203e\n        /* \"#utility.yul\":16573:16574   */\n      0x00\n        /* \"#utility.yul\":16565:16571   */\n      dup3\n        /* \"#utility.yul\":16561:16575   */\n      add\n        /* \"#utility.yul\":16554:16612   */\n      mstore\n        /* \"#utility.yul\":16646:16650   */\n      0x2030000000000000000000000000000000000000000000000000000000000000\n        /* \"#utility.yul\":16641:16643   */\n      0x20\n        /* \"#utility.yul\":16633:16639   */\n      dup3\n        /* \"#utility.yul\":16629:16644   */\n      add\n        /* \"#utility.yul\":16622:16651   */\n      mstore\n        /* \"#utility.yul\":16437:16658   */\n      pop\n      jump\t// out\n        /* \"#utility.yul\":16664:17030   */\n    tag_162:\n        /* \"#utility.yul\":16806:16809   */\n      0x00\n        /* \"#utility.yul\":16827:16894   */\n      tag_332\n        /* \"#utility.yul\":16891:16893   */\n      0x22\n        /* \"#utility.yul\":16886:16889   */\n      dup4\n        /* \"#utility.yul\":16827:16894   */\n      tag_123\n      jump\t// in\n    tag_332:\n        /* \"#utility.yul\":16820:16894   */\n      swap2\n      pop\n        /* \"#utility.yul\":16903:16996   */\n      tag_333\n        /* \"#utility.yul\":16992:16995   */\n      dup3\n        /* \"#utility.yul\":16903:16996   */\n      tag_161\n      jump\t// in\n    tag_333:\n        /* \"#utility.yul\":17021:17023   */\n      0x40\n        /* \"#utility.yul\":17016:17019   */\n      dup3\n        /* \"#utility.yul\":17012:17024   */\n      add\n        /* \"#utility.yul\":17005:17024   */\n      swap1\n      pop\n        /* \"#utility.yul\":16664:17030   */\n      swap2\n      swap1\n      pop\n      jump\t// out\n        /* \"#utility.yul\":17036:17455   */\n    tag_107:\n        /* \"#utility.yul\":17202:17206   */\n      0x00\n        /* \"#utility.yul\":17240:17242   */\n      0x20\n        /* \"#utility.yul\":17229:17238   */\n      dup3\n        /* \"#utility.yul\":17225:17243   */\n      add\n        /* \"#utility.yul\":17217:17243   */\n      swap1\n      pop\n        /* \"#utility.yul\":17289:17298   */\n      dup2\n        /* \"#utility.yul\":17283:17287   */\n      dup2\n        /* \"#utility.yul\":17279:17299   */\n      sub\n        /* \"#utility.yul\":17275:17276   */\n      0x00\n        /* \"#utility.yul\":17264:17273   */\n      dup4\n        /* \"#utility.yul\":17260:17277   */\n      add\n        /* \"#utility.yul\":17253:17300   */\n      mstore\n        /* \"#utility.yul\":17317:17448   */\n      tag_335\n        /* \"#utility.yul\":17443:17447   */\n      dup2\n        /* \"#utility.yul\":17317:17448   */\n      tag_162\n      jump\t// in\n    tag_335:\n        /* \"#utility.yul\":17309:17448   */\n      swap1\n      pop\n        /* \"#utility.yul\":17036:17455   */\n      swap2\n      swap1\n      pop\n      jump\t// out\n        /* \"#utility.yul\":17461:17640   */\n    tag_163:\n        /* \"#utility.yul\":17601:17632   */\n      0x43616e6e6f7420646f6e61746520746f20746869732063616d70696e67000000\n        /* \"#utility.yul\":17597:17598   */\n      0x00\n        /* \"#utility.yul\":17589:17595   */\n      dup3\n        /* \"#utility.yul\":17585:17599   */\n      add\n        /* \"#utility.yul\":17578:17633   */\n      mstore\n        /* \"#utility.yul\":17461:17640   */\n      pop\n      jump\t// out\n        /* \"#utility.yul\":17646:18012   */\n    tag_164:\n        /* \"#utility.yul\":17788:17791   */\n      0x00\n        /* \"#utility.yul\":17809:17876   */\n      tag_338\n        /* \"#utility.yul\":17873:17875   */\n      0x1d\n        /* \"#utility.yul\":17868:17871   */\n      dup4\n        /* \"#utility.yul\":17809:17876   */\n      tag_123\n      jump\t// in\n    tag_338:\n        /* \"#utility.yul\":17802:17876   */\n      swap2\n      pop\n        /* \"#utility.yul\":17885:17978   */\n      tag_339\n        /* \"#utility.yul\":17974:17977   */\n      dup3\n        /* \"#utility.yul\":17885:17978   */\n      tag_163\n      jump\t// in\n    tag_339:\n        /* \"#utility.yul\":18003:18005   */\n      0x20\n        /* \"#utility.yul\":17998:18001   */\n      dup3\n        /* \"#utility.yul\":17994:18006   */\n      add\n        /* \"#utility.yul\":17987:18006   */\n      swap1\n      pop\n        /* \"#utility.yul\":17646:18012   */\n      swap2\n      swap1\n      pop\n      jump\t// out\n        /* \"#utility.yul\":18018:18437   */\n    tag_110:\n        /* \"#utility.yul\":18184:18188   */\n      0x00\n        /* \"#utility.yul\":18222:18224   */\n      0x20\n        /* \"#utility.yul\":18211:18220   */\n      dup3\n        /* \"#utility.yul\":18207:18225   */\n      add\n        /* \"#utility.yul\":18199:18225   */\n      swap1\n      pop\n        /* \"#utility.yul\":18271:18280   */\n      dup2\n        /* \"#utility.yul\":18265:18269   */\n      dup2\n        /* \"#utility.yul\":18261:18281   */\n      sub\n        /* \"#utility.yul\":18257:18258   */\n      0x00\n        /* \"#utility.yul\":18246:18255   */\n      dup4\n        /* \"#utility.yul\":18242:18259   */\n      add\n        /* \"#utility.yul\":18235:18282   */\n      mstore\n        /* \"#utility.yul\":18299:18430   */\n      tag_341\n        /* \"#utility.yul\":18425:18429   */\n      dup2\n        /* \"#utility.yul\":18299:18430   */\n      tag_164\n      jump\t// in\n    tag_341:\n        /* \"#utility.yul\":18291:18430   */\n      swap1\n      pop\n        /* \"#utility.yul\":18018:18437   */\n      swap2\n      swap1\n      pop\n      jump\t// out\n        /* \"#utility.yul\":18443:18634   */\n    tag_112:\n        /* \"#utility.yul\":18483:18486   */\n      0x00\n        /* \"#utility.yul\":18502:18522   */\n      tag_343\n        /* \"#utility.yul\":18520:18521   */\n      dup3\n        /* \"#utility.yul\":18502:18522   */\n      tag_116\n      jump\t// in\n    tag_343:\n        /* \"#utility.yul\":18497:18522   */\n      swap2\n      pop\n        /* \"#utility.yul\":18536:18556   */\n      tag_344\n        /* \"#utility.yul\":18554:18555   */\n      dup4\n        /* \"#utility.yul\":18536:18556   */\n      tag_116\n      jump\t// in\n    tag_344:\n        /* \"#utility.yul\":18531:18556   */\n      swap3\n      pop\n        /* \"#utility.yul\":18579:18580   */\n      dup3\n        /* \"#utility.yul\":18576:18577   */\n      dup3\n        /* \"#utility.yul\":18572:18581   */\n      add\n        /* \"#utility.yul\":18565:18581   */\n      swap1\n      pop\n        /* \"#utility.yul\":18600:18603   */\n      dup1\n        /* \"#utility.yul\":18597:18598   */\n      dup3\n        /* \"#utility.yul\":18594:18604   */\n      gt\n        /* \"#utility.yul\":18591:18627   */\n      iszero\n      tag_345\n      jumpi\n        /* \"#utility.yul\":18607:18625   */\n      tag_346\n      tag_141\n      jump\t// in\n    tag_346:\n        /* \"#utility.yul\":18591:18627   */\n    tag_345:\n        /* \"#utility.yul\":18443:18634   */\n      swap3\n      swap2\n      pop\n      pop\n      jump\t// out\n\n    auxdata: 0xa2646970667358221220d8610fc43748909651d30a5cfbc6fcc740fc645b2a8e2f6fad6c961f9c94214864736f6c63430008120033\n}\n",
				"bytecode": {
					"linkReferences": {},
					"object": "60806040526064600055600060015534801561001a57600080fd5b506116858061002a6000396000f3fe6080604052600436106100555760003560e01c8063141961bc1461005a5780632e1a7d4d1461009d57806361b8ce8c146100c6578063ddca3f43146100f1578063ec6714861461011c578063f14faf6f14610145575b600080fd5b34801561006657600080fd5b50610081600480360381019061007c9190610c99565b610161565b6040516100949796959493929190610dc1565b60405180910390f35b3480156100a957600080fd5b506100c460048036038101906100bf9190610c99565b6103f0565b005b3480156100d257600080fd5b506100db610891565b6040516100e89190610e4c565b60405180910390f35b3480156100fd57600080fd5b50610106610897565b6040516101139190610e4c565b60405180910390f35b34801561012857600080fd5b50610143600480360381019061013e9190610ecc565b61089d565b005b61015f600480360381019061015a9190610c99565b610b27565b005b60026020528060005260406000206000915090508060000160009054906101000a900473ffffffffffffffffffffffffffffffffffffffff16908060010180546101aa90610fe4565b80601f01602080910402602001604051908101604052809291908181526020018280546101d690610fe4565b80156102235780601f106101f857610100808354040283529160200191610223565b820191906000526020600020905b81548152906001019060200180831161020657829003601f168201915b50505050509080600201805461023890610fe4565b80601f016020809104026020016040519081016040528092919081815260200182805461026490610fe4565b80156102b15780601f10610286576101008083540402835291602001916102b1565b820191906000526020600020905b81548152906001019060200180831161029457829003601f168201915b5050505050908060030180546102c690610fe4565b80601f01602080910402602001604051908101604052809291908181526020018280546102f290610fe4565b801561033f5780601f106103145761010080835404028352916020019161033f565b820191906000526020600020905b81548152906001019060200180831161032257829003601f168201915b50505050509080600401805461035490610fe4565b80601f016020809104026020016040519081016040528092919081815260200182805461038090610fe4565b80156103cd5780601f106103a2576101008083540402835291602001916103cd565b820191906000526020600020905b8154815290600101906020018083116103b057829003601f168201915b5050505050908060050154908060060160009054906101000a900460ff16905087565b6000600260008381526020019081526020016000206040518060e00160405290816000820160009054906101000a900473ffffffffffffffffffffffffffffffffffffffff1673ffffffffffffffffffffffffffffffffffffffff1673ffffffffffffffffffffffffffffffffffffffff16815260200160018201805461047690610fe4565b80601f01602080910402602001604051908101604052809291908181526020018280546104a290610fe4565b80156104ef5780601f106104c4576101008083540402835291602001916104ef565b820191906000526020600020905b8154815290600101906020018083116104d257829003601f168201915b5050505050815260200160028201805461050890610fe4565b80601f016020809104026020016040519081016040528092919081815260200182805461053490610fe4565b80156105815780601f1061055657610100808354040283529160200191610581565b820191906000526020600020905b81548152906001019060200180831161056457829003601f168201915b5050505050815260200160038201805461059a90610fe4565b80601f01602080910402602001604051908101604052809291908181526020018280546105c690610fe4565b80156106135780601f106105e857610100808354040283529160200191610613565b820191906000526020600020905b8154815290600101906020018083116105f657829003601f168201915b5050505050815260200160048201805461062c90610fe4565b80601f016020809104026020016040519081016040528092919081815260200182805461065890610fe4565b80156106a55780601f1061067a576101008083540402835291602001916106a5565b820191906000526020600020905b81548152906001019060200180831161068857829003601f168201915b50505050508152602001600582015481526020016006820160009054906101000a900460ff16151515158152505090503373ffffffffffffffffffffffffffffffffffffffff16816000015173ffffffffffffffffffffffffffffffffffffffff1614610747576040517f08c379a000000000000000000000000000000000000000000000000000000000815260040161073e90611061565b60405180910390fd5b600115158160c00151151514610792576040517f08c379a0000000000000000000000000000000000000000000000000000000008152600401610789906110cd565b60405180910390fd5b6000548160a00151116107da576040517f08c379a00000000000000000000000000000000000000000000000000000000081526004016107d19061115f565b60405180910390fd5b6000816000015190508073ffffffffffffffffffffffffffffffffffffffff166000548360a0015161080c91906111ae565b60405161081890611213565b60006040518083038185875af1925050503d8060008114610855576040519150601f19603f3d011682016040523d82523d6000602084013e61085a565b606091505b50505060006002600085815260200190815260200160002060060160006101000a81548160ff021916908315150217905550505050565b60015481565b60005481565b6108a5610c04565b88888080601f016020809104026020016040519081016040528093929190818152602001838380828437600081840152601f19601f82011690508083019250505050505050816020018190525086868080601f016020809104026020016040519081016040528093929190818152602001838380828437600081840152601f19601f82011690508083019250505050505050816040018190525084848080601f016020809104026020016040519081016040528093929190818152602001838380828437600081840152601f19601f82011690508083019250505050505050816060018190525082828080601f016020809104026020016040519081016040528093929190818152602001838380828437600081840152601f19601f82011690508083019250505050505050816080018190525060018160c001901515908115158152505033816000019073ffffffffffffffffffffffffffffffffffffffff16908173ffffffffffffffffffffffffffffffffffffffff168152505060016000815480929190610a3590611228565b91905055508060026000600154815260200190815260200160002060008201518160000160006101000a81548173ffffffffffffffffffffffffffffffffffffffff021916908373ffffffffffffffffffffffffffffffffffffffff1602179055506020820151816001019081610aac919061144b565b506040820151816002019081610ac2919061144b565b506060820151816003019081610ad8919061144b565b506080820151816004019081610aee919061144b565b5060a0820151816005015560c08201518160060160006101000a81548160ff021916908315150217905550905050505050505050505050565b60003411610b6a576040517f08c379a0000000000000000000000000000000000000000000000000000000008152600401610b619061158f565b60405180910390fd5b600115156002600083815260200190815260200160002060060160009054906101000a900460ff16151514610bd4576040517f08c379a0000000000000000000000000000000000000000000000000000000008152600401610bcb906115fb565b60405180910390fd5b34600260008381526020019081526020016000206005016000828254610bfa919061161b565b9250508190555050565b6040518060e00160405280600073ffffffffffffffffffffffffffffffffffffffff16815260200160608152602001606081526020016060815260200160608152602001600081526020016000151581525090565b600080fd5b600080fd5b6000819050919050565b610c7681610c63565b8114610c8157600080fd5b50565b600081359050610c9381610c6d565b92915050565b600060208284031215610caf57610cae610c59565b5b6000610cbd84828501610c84565b91505092915050565b600073ffffffffffffffffffffffffffffffffffffffff82169050919050565b6000610cf182610cc6565b9050919050565b610d0181610ce6565b82525050565b600081519050919050565b600082825260208201905092915050565b60005b83811015610d41578082015181840152602081019050610d26565b60008484015250505050565b6000601f19601f8301169050919050565b6000610d6982610d07565b610d738185610d12565b9350610d83818560208601610d23565b610d8c81610d4d565b840191505092915050565b610da081610c63565b82525050565b60008115159050919050565b610dbb81610da6565b82525050565b600060e082019050610dd6600083018a610cf8565b8181036020830152610de88189610d5e565b90508181036040830152610dfc8188610d5e565b90508181036060830152610e108187610d5e565b90508181036080830152610e248186610d5e565b9050610e3360a0830185610d97565b610e4060c0830184610db2565b98975050505050505050565b6000602082019050610e616000830184610d97565b92915050565b600080fd5b600080fd5b600080fd5b60008083601f840112610e8c57610e8b610e67565b5b8235905067ffffffffffffffff811115610ea957610ea8610e6c565b5b602083019150836001820283011115610ec557610ec4610e71565b5b9250929050565b6000806000806000806000806080898b031215610eec57610eeb610c59565b5b600089013567ffffffffffffffff811115610f0a57610f09610c5e565b5b610f168b828c01610e76565b9850985050602089013567ffffffffffffffff811115610f3957610f38610c5e565b5b610f458b828c01610e76565b9650965050604089013567ffffffffffffffff811115610f6857610f67610c5e565b5b610f748b828c01610e76565b9450945050606089013567ffffffffffffffff811115610f9757610f96610c5e565b5b610fa38b828c01610e76565b92509250509295985092959890939650565b7f4e487b7100000000000000000000000000000000000000000000000000000000600052602260045260246000fd5b60006002820490506001821680610ffc57607f821691505b60208210810361100f5761100e610fb5565b5b50919050565b7f596f7520646f206e6f742068617665207065726d697373696f6e000000000000600082015250565b600061104b601a83610d12565b915061105682611015565b602082019050919050565b6000602082019050818103600083015261107a8161103e565b9050919050565b7f546869732063616d706169676e20697320636c6f736564000000000000000000600082015250565b60006110b7601783610d12565b91506110c282611081565b602082019050919050565b600060208201905081810360008301526110e6816110aa565b9050919050565b7f546869732063616d706169676e20646f206e6f74206861766520656e6f75676860008201527f2062616c616e6365000000000000000000000000000000000000000000000000602082015250565b6000611149602883610d12565b9150611154826110ed565b604082019050919050565b600060208201905081810360008301526111788161113c565b9050919050565b7f4e487b7100000000000000000000000000000000000000000000000000000000600052601160045260246000fd5b60006111b982610c63565b91506111c483610c63565b92508282039050818111156111dc576111db61117f565b5b92915050565b600081905092915050565b50565b60006111fd6000836111e2565b9150611208826111ed565b600082019050919050565b600061121e826111f0565b9150819050919050565b600061123382610c63565b91507fffffffffffffffffffffffffffffffffffffffffffffffffffffffffffffffff82036112655761126461117f565b5b600182019050919050565b7f4e487b7100000000000000000000000000000000000000000000000000000000600052604160045260246000fd5b60008190508160005260206000209050919050565b60006020601f8301049050919050565b600082821b905092915050565b6000600883026113017fffffffffffffffffffffffffffffffffffffffffffffffffffffffffffffffff826112c4565b61130b86836112c4565b95508019841693508086168417925050509392505050565b6000819050919050565b600061134861134361133e84610c63565b611323565b610c63565b9050919050565b6000819050919050565b6113628361132d565b61137661136e8261134f565b8484546112d1565b825550505050565b600090565b61138b61137e565b611396818484611359565b505050565b5b818110156113ba576113af600082611383565b60018101905061139c565b5050565b601f8211156113ff576113d08161129f565b6113d9846112b4565b810160208510156113e8578190505b6113fc6113f4856112b4565b83018261139b565b50505b505050565b600082821c905092915050565b600061142260001984600802611404565b1980831691505092915050565b600061143b8383611411565b9150826002028217905092915050565b61145482610d07565b67ffffffffffffffff81111561146d5761146c611270565b5b6114778254610fe4565b6114828282856113be565b600060209050601f8311600181146114b557600084156114a3578287015190505b6114ad858261142f565b865550611515565b601f1984166114c38661129f565b60005b828110156114eb578489015182556001820191506020850194506020810190506114c6565b868310156115085784890151611504601f891682611411565b8355505b6001600288020188555050505b505050505050565b7f596f75206d7573742073656e64206120646f6e6174696f6e2076616c7565203e60008201527f2030000000000000000000000000000000000000000000000000000000000000602082015250565b6000611579602283610d12565b91506115848261151d565b604082019050919050565b600060208201905081810360008301526115a88161156c565b9050919050565b7f43616e6e6f7420646f6e61746520746f20746869732063616d70696e67000000600082015250565b60006115e5601d83610d12565b91506115f0826115af565b602082019050919050565b60006020820190508181036000830152611614816115d8565b9050919050565b600061162682610c63565b915061163183610c63565b92508282019050808211156116495761164861117f565b5b9291505056fea2646970667358221220d8610fc43748909651d30a5cfbc6fcc740fc645b2a8e2f6fad6c961f9c94214864736f6c63430008120033",
					"opcodes": "PUSH1 0x80 PUSH1 0x40 MSTORE PUSH1 0x64 PUSH1 0x0 SSTORE PUSH1 0x0 PUSH1 0x1 SSTORE CALLVALUE DUP1 ISZERO PUSH2 0x1A JUMPI PUSH1 0x0 DUP1 REVERT JUMPDEST POP PUSH2 0x1685 DUP1 PUSH2 0x2A PUSH1 0x0 CODECOPY PUSH1 0x0 RETURN INVALID PUSH1 0x80 PUSH1 0x40 MSTORE PUSH1 0x4 CALLDATASIZE LT PUSH2 0x55 JUMPI PUSH1 0x0 CALLDATALOAD PUSH1 0xE0 SHR DUP1 PUSH4 0x141961BC EQ PUSH2 0x5A JUMPI DUP1 PUSH4 0x2E1A7D4D EQ PUSH2 0x9D JUMPI DUP1 PUSH4 0x61B8CE8C EQ PUSH2 0xC6 JUMPI DUP1 PUSH4 0xDDCA3F43 EQ PUSH2 0xF1 JUMPI DUP1 PUSH4 0xEC671486 EQ PUSH2 0x11C JUMPI DUP1 PUSH4 0xF14FAF6F EQ PUSH2 0x145 JUMPI JUMPDEST PUSH1 0x0 DUP1 REVERT JUMPDEST CALLVALUE DUP1 ISZERO PUSH2 0x66 JUMPI PUSH1 0x0 DUP1 REVERT JUMPDEST POP PUSH2 0x81 PUSH1 0x4 DUP1 CALLDATASIZE SUB DUP2 ADD SWAP1 PUSH2 0x7C SWAP2 SWAP1 PUSH2 0xC99 JUMP JUMPDEST PUSH2 0x161 JUMP JUMPDEST PUSH1 0x40 MLOAD PUSH2 0x94 SWAP8 SWAP7 SWAP6 SWAP5 SWAP4 SWAP3 SWAP2 SWAP1 PUSH2 0xDC1 JUMP JUMPDEST PUSH1 0x40 MLOAD DUP1 SWAP2 SUB SWAP1 RETURN JUMPDEST CALLVALUE DUP1 ISZERO PUSH2 0xA9 JUMPI PUSH1 0x0 DUP1 REVERT JUMPDEST POP PUSH2 0xC4 PUSH1 0x4 DUP1 CALLDATASIZE SUB DUP2 ADD SWAP1 PUSH2 0xBF SWAP2 SWAP1 PUSH2 0xC99 JUMP JUMPDEST PUSH2 0x3F0 JUMP JUMPDEST STOP JUMPDEST CALLVALUE DUP1 ISZERO PUSH2 0xD2 JUMPI PUSH1 0x0 DUP1 REVERT JUMPDEST POP PUSH2 0xDB PUSH2 0x891 JUMP JUMPDEST PUSH1 0x40 MLOAD PUSH2 0xE8 SWAP2 SWAP1 PUSH2 0xE4C JUMP JUMPDEST PUSH1 0x40 MLOAD DUP1 SWAP2 SUB SWAP1 RETURN JUMPDEST CALLVALUE DUP1 ISZERO PUSH2 0xFD JUMPI PUSH1 0x0 DUP1 REVERT JUMPDEST POP PUSH2 0x106 PUSH2 0x897 JUMP JUMPDEST PUSH1 0x40 MLOAD PUSH2 0x113 SWAP2 SWAP1 PUSH2 0xE4C JUMP JUMPDEST PUSH1 0x40 MLOAD DUP1 SWAP2 SUB SWAP1 RETURN JUMPDEST CALLVALUE DUP1 ISZERO PUSH2 0x128 JUMPI PUSH1 0x0 DUP1 REVERT JUMPDEST POP PUSH2 0x143 PUSH1 0x4 DUP1 CALLDATASIZE SUB DUP2 ADD SWAP1 PUSH2 0x13E SWAP2 SWAP1 PUSH2 0xECC JUMP JUMPDEST PUSH2 0x89D JUMP JUMPDEST STOP JUMPDEST PUSH2 0x15F PUSH1 0x4 DUP1 CALLDATASIZE SUB DUP2 ADD SWAP1 PUSH2 0x15A SWAP2 SWAP1 PUSH2 0xC99 JUMP JUMPDEST PUSH2 0xB27 JUMP JUMPDEST STOP JUMPDEST PUSH1 0x2 PUSH1 0x20 MSTORE DUP1 PUSH1 0x0 MSTORE PUSH1 0x40 PUSH1 0x0 KECCAK256 PUSH1 0x0 SWAP2 POP SWAP1 POP DUP1 PUSH1 0x0 ADD PUSH1 0x0 SWAP1 SLOAD SWAP1 PUSH2 0x100 EXP SWAP1 DIV PUSH20 0xFFFFFFFFFFFFFFFFFFFFFFFFFFFFFFFFFFFFFFFF AND SWAP1 DUP1 PUSH1 0x1 ADD DUP1 SLOAD PUSH2 0x1AA SWAP1 PUSH2 0xFE4 JUMP JUMPDEST DUP1 PUSH1 0x1F ADD PUSH1 0x20 DUP1 SWAP2 DIV MUL PUSH1 0x20 ADD PUSH1 0x40 MLOAD SWAP1 DUP2 ADD PUSH1 0x40 MSTORE DUP1 SWAP3 SWAP2 SWAP1 DUP2 DUP2 MSTORE PUSH1 0x20 ADD DUP3 DUP1 SLOAD PUSH2 0x1D6 SWAP1 PUSH2 0xFE4 JUMP JUMPDEST DUP1 ISZERO PUSH2 0x223 JUMPI DUP1 PUSH1 0x1F LT PUSH2 0x1F8 JUMPI PUSH2 0x100 DUP1 DUP4 SLOAD DIV MUL DUP4 MSTORE SWAP2 PUSH1 0x20 ADD SWAP2 PUSH2 0x223 JUMP JUMPDEST DUP3 ADD SWAP2 SWAP1 PUSH1 0x0 MSTORE PUSH1 0x20 PUSH1 0x0 KECCAK256 SWAP1 JUMPDEST DUP2 SLOAD DUP2 MSTORE SWAP1 PUSH1 0x1 ADD SWAP1 PUSH1 0x20 ADD DUP1 DUP4 GT PUSH2 0x206 JUMPI DUP3 SWAP1 SUB PUSH1 0x1F AND DUP3 ADD SWAP2 JUMPDEST POP POP POP POP POP SWAP1 DUP1 PUSH1 0x2 ADD DUP1 SLOAD PUSH2 0x238 SWAP1 PUSH2 0xFE4 JUMP JUMPDEST DUP1 PUSH1 0x1F ADD PUSH1 0x20 DUP1 SWAP2 DIV MUL PUSH1 0x20 ADD PUSH1 0x40 MLOAD SWAP1 DUP2 ADD PUSH1 0x40 MSTORE DUP1 SWAP3 SWAP2 SWAP1 DUP2 DUP2 MSTORE PUSH1 0x20 ADD DUP3 DUP1 SLOAD PUSH2 0x264 SWAP1 PUSH2 0xFE4 JUMP JUMPDEST DUP1 ISZERO PUSH2 0x2B1 JUMPI DUP1 PUSH1 0x1F LT PUSH2 0x286 JUMPI PUSH2 0x100 DUP1 DUP4 SLOAD DIV MUL DUP4 MSTORE SWAP2 PUSH1 0x20 ADD SWAP2 PUSH2 0x2B1 JUMP JUMPDEST DUP3 ADD SWAP2 SWAP1 PUSH1 0x0 MSTORE PUSH1 0x20 PUSH1 0x0 KECCAK256 SWAP1 JUMPDEST DUP2 SLOAD DUP2 MSTORE SWAP1 PUSH1 0x1 ADD SWAP1 PUSH1 0x20 ADD DUP1 DUP4 GT PUSH2 0x294 JUMPI DUP3 SWAP1 SUB PUSH1 0x1F AND DUP3 ADD SWAP2 JUMPDEST POP POP POP POP POP SWAP1 DUP1 PUSH1 0x3 ADD DUP1 SLOAD PUSH2 0x2C6 SWAP1 PUSH2 0xFE4 JUMP JUMPDEST DUP1 PUSH1 0x1F ADD PUSH1 0x20 DUP1 SWAP2 DIV MUL PUSH1 0x20 ADD PUSH1 0x40 MLOAD SWAP1 DUP2 ADD PUSH1 0x40 MSTORE DUP1 SWAP3 SWAP2 SWAP1 DUP2 DUP2 MSTORE PUSH1 0x20 ADD DUP3 DUP1 SLOAD PUSH2 0x2F2 SWAP1 PUSH2 0xFE4 JUMP JUMPDEST DUP1 ISZERO PUSH2 0x33F JUMPI DUP1 PUSH1 0x1F LT PUSH2 0x314 JUMPI PUSH2 0x100 DUP1 DUP4 SLOAD DIV MUL DUP4 MSTORE SWAP2 PUSH1 0x20 ADD SWAP2 PUSH2 0x33F JUMP JUMPDEST DUP3 ADD SWAP2 SWAP1 PUSH1 0x0 MSTORE PUSH1 0x20 PUSH1 0x0 KECCAK256 SWAP1 JUMPDEST DUP2 SLOAD DUP2 MSTORE SWAP1 PUSH1 0x1 ADD SWAP1 PUSH1 0x20 ADD DUP1 DUP4 GT PUSH2 0x322 JUMPI DUP3 SWAP1 SUB PUSH1 0x1F AND DUP3 ADD SWAP2 JUMPDEST POP POP POP POP POP SWAP1 DUP1 PUSH1 0x4 ADD DUP1 SLOAD PUSH2 0x354 SWAP1 PUSH2 0xFE4 JUMP JUMPDEST DUP1 PUSH1 0x1F ADD PUSH1 0x20 DUP1 SWAP2 DIV MUL PUSH1 0x20 ADD PUSH1 0x40 MLOAD SWAP1 DUP2 ADD PUSH1 0x40 MSTORE DUP1 SWAP3 SWAP2 SWAP1 DUP2 DUP2 MSTORE PUSH1 0x20 ADD DUP3 DUP1 SLOAD PUSH2 0x380 SWAP1 PUSH2 0xFE4 JUMP JUMPDEST DUP1 ISZERO PUSH2 0x3CD JUMPI DUP1 PUSH1 0x1F LT PUSH2 0x3A2 JUMPI PUSH2 0x100 DUP1 DUP4 SLOAD DIV MUL DUP4 MSTORE SWAP2 PUSH1 0x20 ADD SWAP2 PUSH2 0x3CD JUMP JUMPDEST DUP3 ADD SWAP2 SWAP1 PUSH1 0x0 MSTORE PUSH1 0x20 PUSH1 0x0 KECCAK256 SWAP1 JUMPDEST DUP2 SLOAD DUP2 MSTORE SWAP1 PUSH1 0x1 ADD SWAP1 PUSH1 0x20 ADD DUP1 DUP4 GT PUSH2 0x3B0 JUMPI DUP3 SWAP1 SUB PUSH1 0x1F AND DUP3 ADD SWAP2 JUMPDEST POP POP POP POP POP SWAP1 DUP1 PUSH1 0x5 ADD SLOAD SWAP1 DUP1 PUSH1 0x6 ADD PUSH1 0x0 SWAP1 SLOAD SWAP1 PUSH2 0x100 EXP SWAP1 DIV PUSH1 0xFF AND SWAP1 POP DUP8 JUMP JUMPDEST PUSH1 0x0 PUSH1 0x2 PUSH1 0x0 DUP4 DUP2 MSTORE PUSH1 0x20 ADD SWAP1 DUP2 MSTORE PUSH1 0x20 ADD PUSH1 0x0 KECCAK256 PUSH1 0x40 MLOAD DUP1 PUSH1 0xE0 ADD PUSH1 0x40 MSTORE SWAP1 DUP2 PUSH1 0x0 DUP3 ADD PUSH1 0x0 SWAP1 SLOAD SWAP1 PUSH2 0x100 EXP SWAP1 DIV PUSH20 0xFFFFFFFFFFFFFFFFFFFFFFFFFFFFFFFFFFFFFFFF AND PUSH20 0xFFFFFFFFFFFFFFFFFFFFFFFFFFFFFFFFFFFFFFFF AND PUSH20 0xFFFFFFFFFFFFFFFFFFFFFFFFFFFFFFFFFFFFFFFF AND DUP2 MSTORE PUSH1 0x20 ADD PUSH1 0x1 DUP3 ADD DUP1 SLOAD PUSH2 0x476 SWAP1 PUSH2 0xFE4 JUMP JUMPDEST DUP1 PUSH1 0x1F ADD PUSH1 0x20 DUP1 SWAP2 DIV MUL PUSH1 0x20 ADD PUSH1 0x40 MLOAD SWAP1 DUP2 ADD PUSH1 0x40 MSTORE DUP1 SWAP3 SWAP2 SWAP1 DUP2 DUP2 MSTORE PUSH1 0x20 ADD DUP3 DUP1 SLOAD PUSH2 0x4A2 SWAP1 PUSH2 0xFE4 JUMP JUMPDEST DUP1 ISZERO PUSH2 0x4EF JUMPI DUP1 PUSH1 0x1F LT PUSH2 0x4C4 JUMPI PUSH2 0x100 DUP1 DUP4 SLOAD DIV MUL DUP4 MSTORE SWAP2 PUSH1 0x20 ADD SWAP2 PUSH2 0x4EF JUMP JUMPDEST DUP3 ADD SWAP2 SWAP1 PUSH1 0x0 MSTORE PUSH1 0x20 PUSH1 0x0 KECCAK256 SWAP1 JUMPDEST DUP2 SLOAD DUP2 MSTORE SWAP1 PUSH1 0x1 ADD SWAP1 PUSH1 0x20 ADD DUP1 DUP4 GT PUSH2 0x4D2 JUMPI DUP3 SWAP1 SUB PUSH1 0x1F AND DUP3 ADD SWAP2 JUMPDEST POP POP POP POP POP DUP2 MSTORE PUSH1 0x20 ADD PUSH1 0x2 DUP3 ADD DUP1 SLOAD PUSH2 0x508 SWAP1 PUSH2 0xFE4 JUMP JUMPDEST DUP1 PUSH1 0x1F ADD PUSH1 0x20 DUP1 SWAP2 DIV MUL PUSH1 0x20 ADD PUSH1 0x40 MLOAD SWAP1 DUP2 ADD PUSH1 0x40 MSTORE DUP1 SWAP3 SWAP2 SWAP1 DUP2 DUP2 MSTORE PUSH1 0x20 ADD DUP3 DUP1 SLOAD PUSH2 0x534 SWAP1 PUSH2 0xFE4 JUMP JUMPDEST DUP1 ISZERO PUSH2 0x581 JUMPI DUP1 PUSH1 0x1F LT PUSH2 0x556 JUMPI PUSH2 0x100 DUP1 DUP4 SLOAD DIV MUL DUP4 MSTORE SWAP2 PUSH1 0x20 ADD SWAP2 PUSH2 0x581 JUMP JUMPDEST DUP3 ADD SWAP2 SWAP1 PUSH1 0x0 MSTORE PUSH1 0x20 PUSH1 0x0 KECCAK256 SWAP1 JUMPDEST DUP2 SLOAD DUP2 MSTORE SWAP1 PUSH1 0x1 ADD SWAP1 PUSH1 0x20 ADD DUP1 DUP4 GT PUSH2 0x564 JUMPI DUP3 SWAP1 SUB PUSH1 0x1F AND DUP3 ADD SWAP2 JUMPDEST POP POP POP POP POP DUP2 MSTORE PUSH1 0x20 ADD PUSH1 0x3 DUP3 ADD DUP1 SLOAD PUSH2 0x59A SWAP1 PUSH2 0xFE4 JUMP JUMPDEST DUP1 PUSH1 0x1F ADD PUSH1 0x20 DUP1 SWAP2 DIV MUL PUSH1 0x20 ADD PUSH1 0x40 MLOAD SWAP1 DUP2 ADD PUSH1 0x40 MSTORE DUP1 SWAP3 SWAP2 SWAP1 DUP2 DUP2 MSTORE PUSH1 0x20 ADD DUP3 DUP1 SLOAD PUSH2 0x5C6 SWAP1 PUSH2 0xFE4 JUMP JUMPDEST DUP1 ISZERO PUSH2 0x613 JUMPI DUP1 PUSH1 0x1F LT PUSH2 0x5E8 JUMPI PUSH2 0x100 DUP1 DUP4 SLOAD DIV MUL DUP4 MSTORE SWAP2 PUSH1 0x20 ADD SWAP2 PUSH2 0x613 JUMP JUMPDEST DUP3 ADD SWAP2 SWAP1 PUSH1 0x0 MSTORE PUSH1 0x20 PUSH1 0x0 KECCAK256 SWAP1 JUMPDEST DUP2 SLOAD DUP2 MSTORE SWAP1 PUSH1 0x1 ADD SWAP1 PUSH1 0x20 ADD DUP1 DUP4 GT PUSH2 0x5F6 JUMPI DUP3 SWAP1 SUB PUSH1 0x1F AND DUP3 ADD SWAP2 JUMPDEST POP POP POP POP POP DUP2 MSTORE PUSH1 0x20 ADD PUSH1 0x4 DUP3 ADD DUP1 SLOAD PUSH2 0x62C SWAP1 PUSH2 0xFE4 JUMP JUMPDEST DUP1 PUSH1 0x1F ADD PUSH1 0x20 DUP1 SWAP2 DIV MUL PUSH1 0x20 ADD PUSH1 0x40 MLOAD SWAP1 DUP2 ADD PUSH1 0x40 MSTORE DUP1 SWAP3 SWAP2 SWAP1 DUP2 DUP2 MSTORE PUSH1 0x20 ADD DUP3 DUP1 SLOAD PUSH2 0x658 SWAP1 PUSH2 0xFE4 JUMP JUMPDEST DUP1 ISZERO PUSH2 0x6A5 JUMPI DUP1 PUSH1 0x1F LT PUSH2 0x67A JUMPI PUSH2 0x100 DUP1 DUP4 SLOAD DIV MUL DUP4 MSTORE SWAP2 PUSH1 0x20 ADD SWAP2 PUSH2 0x6A5 JUMP JUMPDEST DUP3 ADD SWAP2 SWAP1 PUSH1 0x0 MSTORE PUSH1 0x20 PUSH1 0x0 KECCAK256 SWAP1 JUMPDEST DUP2 SLOAD DUP2 MSTORE SWAP1 PUSH1 0x1 ADD SWAP1 PUSH1 0x20 ADD DUP1 DUP4 GT PUSH2 0x688 JUMPI DUP3 SWAP1 SUB PUSH1 0x1F AND DUP3 ADD SWAP2 JUMPDEST POP POP POP POP POP DUP2 MSTORE PUSH1 0x20 ADD PUSH1 0x5 DUP3 ADD SLOAD DUP2 MSTORE PUSH1 0x20 ADD PUSH1 0x6 DUP3 ADD PUSH1 0x0 SWAP1 SLOAD SWAP1 PUSH2 0x100 EXP SWAP1 DIV PUSH1 0xFF AND ISZERO ISZERO ISZERO ISZERO DUP2 MSTORE POP POP SWAP1 POP CALLER PUSH20 0xFFFFFFFFFFFFFFFFFFFFFFFFFFFFFFFFFFFFFFFF AND DUP2 PUSH1 0x0 ADD MLOAD PUSH20 0xFFFFFFFFFFFFFFFFFFFFFFFFFFFFFFFFFFFFFFFF AND EQ PUSH2 0x747 JUMPI PUSH1 0x40 MLOAD PUSH32 0x8C379A000000000000000000000000000000000000000000000000000000000 DUP2 MSTORE PUSH1 0x4 ADD PUSH2 0x73E SWAP1 PUSH2 0x1061 JUMP JUMPDEST PUSH1 0x40 MLOAD DUP1 SWAP2 SUB SWAP1 REVERT JUMPDEST PUSH1 0x1 ISZERO ISZERO DUP2 PUSH1 0xC0 ADD MLOAD ISZERO ISZERO EQ PUSH2 0x792 JUMPI PUSH1 0x40 MLOAD PUSH32 0x8C379A000000000000000000000000000000000000000000000000000000000 DUP2 MSTORE PUSH1 0x4 ADD PUSH2 0x789 SWAP1 PUSH2 0x10CD JUMP JUMPDEST PUSH1 0x40 MLOAD DUP1 SWAP2 SUB SWAP1 REVERT JUMPDEST PUSH1 0x0 SLOAD DUP2 PUSH1 0xA0 ADD MLOAD GT PUSH2 0x7DA JUMPI PUSH1 0x40 MLOAD PUSH32 0x8C379A000000000000000000000000000000000000000000000000000000000 DUP2 MSTORE PUSH1 0x4 ADD PUSH2 0x7D1 SWAP1 PUSH2 0x115F JUMP JUMPDEST PUSH1 0x40 MLOAD DUP1 SWAP2 SUB SWAP1 REVERT JUMPDEST PUSH1 0x0 DUP2 PUSH1 0x0 ADD MLOAD SWAP1 POP DUP1 PUSH20 0xFFFFFFFFFFFFFFFFFFFFFFFFFFFFFFFFFFFFFFFF AND PUSH1 0x0 SLOAD DUP4 PUSH1 0xA0 ADD MLOAD PUSH2 0x80C SWAP2 SWAP1 PUSH2 0x11AE JUMP JUMPDEST PUSH1 0x40 MLOAD PUSH2 0x818 SWAP1 PUSH2 0x1213 JUMP JUMPDEST PUSH1 0x0 PUSH1 0x40 MLOAD DUP1 DUP4 SUB DUP2 DUP6 DUP8 GAS CALL SWAP3 POP POP POP RETURNDATASIZE DUP1 PUSH1 0x0 DUP2 EQ PUSH2 0x855 JUMPI PUSH1 0x40 MLOAD SWAP2 POP PUSH1 0x1F NOT PUSH1 0x3F RETURNDATASIZE ADD AND DUP3 ADD PUSH1 0x40 MSTORE RETURNDATASIZE DUP3 MSTORE RETURNDATASIZE PUSH1 0x0 PUSH1 0x20 DUP5 ADD RETURNDATACOPY PUSH2 0x85A JUMP JUMPDEST PUSH1 0x60 SWAP2 POP JUMPDEST POP POP POP PUSH1 0x0 PUSH1 0x2 PUSH1 0x0 DUP6 DUP2 MSTORE PUSH1 0x20 ADD SWAP1 DUP2 MSTORE PUSH1 0x20 ADD PUSH1 0x0 KECCAK256 PUSH1 0x6 ADD PUSH1 0x0 PUSH2 0x100 EXP DUP2 SLOAD DUP2 PUSH1 0xFF MUL NOT AND SWAP1 DUP4 ISZERO ISZERO MUL OR SWAP1 SSTORE POP POP POP POP JUMP JUMPDEST PUSH1 0x1 SLOAD DUP2 JUMP JUMPDEST PUSH1 0x0 SLOAD DUP2 JUMP JUMPDEST PUSH2 0x8A5 PUSH2 0xC04 JUMP JUMPDEST DUP9 DUP9 DUP1 DUP1 PUSH1 0x1F ADD PUSH1 0x20 DUP1 SWAP2 DIV MUL PUSH1 0x20 ADD PUSH1 0x40 MLOAD SWAP1 DUP2 ADD PUSH1 0x40 MSTORE DUP1 SWAP4 SWAP3 SWAP2 SWAP1 DUP2 DUP2 MSTORE PUSH1 0x20 ADD DUP4 DUP4 DUP1 DUP3 DUP5 CALLDATACOPY PUSH1 0x0 DUP2 DUP5 ADD MSTORE PUSH1 0x1F NOT PUSH1 0x1F DUP3 ADD AND SWAP1 POP DUP1 DUP4 ADD SWAP3 POP POP POP POP POP POP POP DUP2 PUSH1 0x20 ADD DUP2 SWAP1 MSTORE POP DUP7 DUP7 DUP1 DUP1 PUSH1 0x1F ADD PUSH1 0x20 DUP1 SWAP2 DIV MUL PUSH1 0x20 ADD PUSH1 0x40 MLOAD SWAP1 DUP2 ADD PUSH1 0x40 MSTORE DUP1 SWAP4 SWAP3 SWAP2 SWAP1 DUP2 DUP2 MSTORE PUSH1 0x20 ADD DUP4 DUP4 DUP1 DUP3 DUP5 CALLDATACOPY PUSH1 0x0 DUP2 DUP5 ADD MSTORE PUSH1 0x1F NOT PUSH1 0x1F DUP3 ADD AND SWAP1 POP DUP1 DUP4 ADD SWAP3 POP POP POP POP POP POP POP DUP2 PUSH1 0x40 ADD DUP2 SWAP1 MSTORE POP DUP5 DUP5 DUP1 DUP1 PUSH1 0x1F ADD PUSH1 0x20 DUP1 SWAP2 DIV MUL PUSH1 0x20 ADD PUSH1 0x40 MLOAD SWAP1 DUP2 ADD PUSH1 0x40 MSTORE DUP1 SWAP4 SWAP3 SWAP2 SWAP1 DUP2 DUP2 MSTORE PUSH1 0x20 ADD DUP4 DUP4 DUP1 DUP3 DUP5 CALLDATACOPY PUSH1 0x0 DUP2 DUP5 ADD MSTORE PUSH1 0x1F NOT PUSH1 0x1F DUP3 ADD AND SWAP1 POP DUP1 DUP4 ADD SWAP3 POP POP POP POP POP POP POP DUP2 PUSH1 0x60 ADD DUP2 SWAP1 MSTORE POP DUP3 DUP3 DUP1 DUP1 PUSH1 0x1F ADD PUSH1 0x20 DUP1 SWAP2 DIV MUL PUSH1 0x20 ADD PUSH1 0x40 MLOAD SWAP1 DUP2 ADD PUSH1 0x40 MSTORE DUP1 SWAP4 SWAP3 SWAP2 SWAP1 DUP2 DUP2 MSTORE PUSH1 0x20 ADD DUP4 DUP4 DUP1 DUP3 DUP5 CALLDATACOPY PUSH1 0x0 DUP2 DUP5 ADD MSTORE PUSH1 0x1F NOT PUSH1 0x1F DUP3 ADD AND SWAP1 POP DUP1 DUP4 ADD SWAP3 POP POP POP POP POP POP POP DUP2 PUSH1 0x80 ADD DUP2 SWAP1 MSTORE POP PUSH1 0x1 DUP2 PUSH1 0xC0 ADD SWAP1 ISZERO ISZERO SWAP1 DUP2 ISZERO ISZERO DUP2 MSTORE POP POP CALLER DUP2 PUSH1 0x0 ADD SWAP1 PUSH20 0xFFFFFFFFFFFFFFFFFFFFFFFFFFFFFFFFFFFFFFFF AND SWAP1 DUP2 PUSH20 0xFFFFFFFFFFFFFFFFFFFFFFFFFFFFFFFFFFFFFFFF AND DUP2 MSTORE POP POP PUSH1 0x1 PUSH1 0x0 DUP2 SLOAD DUP1 SWAP3 SWAP2 SWAP1 PUSH2 0xA35 SWAP1 PUSH2 0x1228 JUMP JUMPDEST SWAP2 SWAP1 POP SSTORE POP DUP1 PUSH1 0x2 PUSH1 0x0 PUSH1 0x1 SLOAD DUP2 MSTORE PUSH1 0x20 ADD SWAP1 DUP2 MSTORE PUSH1 0x20 ADD PUSH1 0x0 KECCAK256 PUSH1 0x0 DUP3 ADD MLOAD DUP2 PUSH1 0x0 ADD PUSH1 0x0 PUSH2 0x100 EXP DUP2 SLOAD DUP2 PUSH20 0xFFFFFFFFFFFFFFFFFFFFFFFFFFFFFFFFFFFFFFFF MUL NOT AND SWAP1 DUP4 PUSH20 0xFFFFFFFFFFFFFFFFFFFFFFFFFFFFFFFFFFFFFFFF AND MUL OR SWAP1 SSTORE POP PUSH1 0x20 DUP3 ADD MLOAD DUP2 PUSH1 0x1 ADD SWAP1 DUP2 PUSH2 0xAAC SWAP2 SWAP1 PUSH2 0x144B JUMP JUMPDEST POP PUSH1 0x40 DUP3 ADD MLOAD DUP2 PUSH1 0x2 ADD SWAP1 DUP2 PUSH2 0xAC2 SWAP2 SWAP1 PUSH2 0x144B JUMP JUMPDEST POP PUSH1 0x60 DUP3 ADD MLOAD DUP2 PUSH1 0x3 ADD SWAP1 DUP2 PUSH2 0xAD8 SWAP2 SWAP1 PUSH2 0x144B JUMP JUMPDEST POP PUSH1 0x80 DUP3 ADD MLOAD DUP2 PUSH1 0x4 ADD SWAP1 DUP2 PUSH2 0xAEE SWAP2 SWAP1 PUSH2 0x144B JUMP JUMPDEST POP PUSH1 0xA0 DUP3 ADD MLOAD DUP2 PUSH1 0x5 ADD SSTORE PUSH1 0xC0 DUP3 ADD MLOAD DUP2 PUSH1 0x6 ADD PUSH1 0x0 PUSH2 0x100 EXP DUP2 SLOAD DUP2 PUSH1 0xFF MUL NOT AND SWAP1 DUP4 ISZERO ISZERO MUL OR SWAP1 SSTORE POP SWAP1 POP POP POP POP POP POP POP POP POP POP POP JUMP JUMPDEST PUSH1 0x0 CALLVALUE GT PUSH2 0xB6A JUMPI PUSH1 0x40 MLOAD PUSH32 0x8C379A000000000000000000000000000000000000000000000000000000000 DUP2 MSTORE PUSH1 0x4 ADD PUSH2 0xB61 SWAP1 PUSH2 0x158F JUMP JUMPDEST PUSH1 0x40 MLOAD DUP1 SWAP2 SUB SWAP1 REVERT JUMPDEST PUSH1 0x1 ISZERO ISZERO PUSH1 0x2 PUSH1 0x0 DUP4 DUP2 MSTORE PUSH1 0x20 ADD SWAP1 DUP2 MSTORE PUSH1 0x20 ADD PUSH1 0x0 KECCAK256 PUSH1 0x6 ADD PUSH1 0x0 SWAP1 SLOAD SWAP1 PUSH2 0x100 EXP SWAP1 DIV PUSH1 0xFF AND ISZERO ISZERO EQ PUSH2 0xBD4 JUMPI PUSH1 0x40 MLOAD PUSH32 0x8C379A000000000000000000000000000000000000000000000000000000000 DUP2 MSTORE PUSH1 0x4 ADD PUSH2 0xBCB SWAP1 PUSH2 0x15FB JUMP JUMPDEST PUSH1 0x40 MLOAD DUP1 SWAP2 SUB SWAP1 REVERT JUMPDEST CALLVALUE PUSH1 0x2 PUSH1 0x0 DUP4 DUP2 MSTORE PUSH1 0x20 ADD SWAP1 DUP2 MSTORE PUSH1 0x20 ADD PUSH1 0x0 KECCAK256 PUSH1 0x5 ADD PUSH1 0x0 DUP3 DUP3 SLOAD PUSH2 0xBFA SWAP2 SWAP1 PUSH2 0x161B JUMP JUMPDEST SWAP3 POP POP DUP2 SWAP1 SSTORE POP POP JUMP JUMPDEST PUSH1 0x40 MLOAD DUP1 PUSH1 0xE0 ADD PUSH1 0x40 MSTORE DUP1 PUSH1 0x0 PUSH20 0xFFFFFFFFFFFFFFFFFFFFFFFFFFFFFFFFFFFFFFFF AND DUP2 MSTORE PUSH1 0x20 ADD PUSH1 0x60 DUP2 MSTORE PUSH1 0x20 ADD PUSH1 0x60 DUP2 MSTORE PUSH1 0x20 ADD PUSH1 0x60 DUP2 MSTORE PUSH1 0x20 ADD PUSH1 0x60 DUP2 MSTORE PUSH1 0x20 ADD PUSH1 0x0 DUP2 MSTORE PUSH1 0x20 ADD PUSH1 0x0 ISZERO ISZERO DUP2 MSTORE POP SWAP1 JUMP JUMPDEST PUSH1 0x0 DUP1 REVERT JUMPDEST PUSH1 0x0 DUP1 REVERT JUMPDEST PUSH1 0x0 DUP2 SWAP1 POP SWAP2 SWAP1 POP JUMP JUMPDEST PUSH2 0xC76 DUP2 PUSH2 0xC63 JUMP JUMPDEST DUP2 EQ PUSH2 0xC81 JUMPI PUSH1 0x0 DUP1 REVERT JUMPDEST POP JUMP JUMPDEST PUSH1 0x0 DUP2 CALLDATALOAD SWAP1 POP PUSH2 0xC93 DUP2 PUSH2 0xC6D JUMP JUMPDEST SWAP3 SWAP2 POP POP JUMP JUMPDEST PUSH1 0x0 PUSH1 0x20 DUP3 DUP5 SUB SLT ISZERO PUSH2 0xCAF JUMPI PUSH2 0xCAE PUSH2 0xC59 JUMP JUMPDEST JUMPDEST PUSH1 0x0 PUSH2 0xCBD DUP5 DUP3 DUP6 ADD PUSH2 0xC84 JUMP JUMPDEST SWAP2 POP POP SWAP3 SWAP2 POP POP JUMP JUMPDEST PUSH1 0x0 PUSH20 0xFFFFFFFFFFFFFFFFFFFFFFFFFFFFFFFFFFFFFFFF DUP3 AND SWAP1 POP SWAP2 SWAP1 POP JUMP JUMPDEST PUSH1 0x0 PUSH2 0xCF1 DUP3 PUSH2 0xCC6 JUMP JUMPDEST SWAP1 POP SWAP2 SWAP1 POP JUMP JUMPDEST PUSH2 0xD01 DUP2 PUSH2 0xCE6 JUMP JUMPDEST DUP3 MSTORE POP POP JUMP JUMPDEST PUSH1 0x0 DUP2 MLOAD SWAP1 POP SWAP2 SWAP1 POP JUMP JUMPDEST PUSH1 0x0 DUP3 DUP3 MSTORE PUSH1 0x20 DUP3 ADD SWAP1 POP SWAP3 SWAP2 POP POP JUMP JUMPDEST PUSH1 0x0 JUMPDEST DUP4 DUP2 LT ISZERO PUSH2 0xD41 JUMPI DUP1 DUP3 ADD MLOAD DUP2 DUP5 ADD MSTORE PUSH1 0x20 DUP2 ADD SWAP1 POP PUSH2 0xD26 JUMP JUMPDEST PUSH1 0x0 DUP5 DUP5 ADD MSTORE POP POP POP POP JUMP JUMPDEST PUSH1 0x0 PUSH1 0x1F NOT PUSH1 0x1F DUP4 ADD AND SWAP1 POP SWAP2 SWAP1 POP JUMP JUMPDEST PUSH1 0x0 PUSH2 0xD69 DUP3 PUSH2 0xD07 JUMP JUMPDEST PUSH2 0xD73 DUP2 DUP6 PUSH2 0xD12 JUMP JUMPDEST SWAP4 POP PUSH2 0xD83 DUP2 DUP6 PUSH1 0x20 DUP7 ADD PUSH2 0xD23 JUMP JUMPDEST PUSH2 0xD8C DUP2 PUSH2 0xD4D JUMP JUMPDEST DUP5 ADD SWAP2 POP POP SWAP3 SWAP2 POP POP JUMP JUMPDEST PUSH2 0xDA0 DUP2 PUSH2 0xC63 JUMP JUMPDEST DUP3 MSTORE POP POP JUMP JUMPDEST PUSH1 0x0 DUP2 ISZERO ISZERO SWAP1 POP SWAP2 SWAP1 POP JUMP JUMPDEST PUSH2 0xDBB DUP2 PUSH2 0xDA6 JUMP JUMPDEST DUP3 MSTORE POP POP JUMP JUMPDEST PUSH1 0x0 PUSH1 0xE0 DUP3 ADD SWAP1 POP PUSH2 0xDD6 PUSH1 0x0 DUP4 ADD DUP11 PUSH2 0xCF8 JUMP JUMPDEST DUP2 DUP2 SUB PUSH1 0x20 DUP4 ADD MSTORE PUSH2 0xDE8 DUP2 DUP10 PUSH2 0xD5E JUMP JUMPDEST SWAP1 POP DUP2 DUP2 SUB PUSH1 0x40 DUP4 ADD MSTORE PUSH2 0xDFC DUP2 DUP9 PUSH2 0xD5E JUMP JUMPDEST SWAP1 POP DUP2 DUP2 SUB PUSH1 0x60 DUP4 ADD MSTORE PUSH2 0xE10 DUP2 DUP8 PUSH2 0xD5E JUMP JUMPDEST SWAP1 POP DUP2 DUP2 SUB PUSH1 0x80 DUP4 ADD MSTORE PUSH2 0xE24 DUP2 DUP7 PUSH2 0xD5E JUMP JUMPDEST SWAP1 POP PUSH2 0xE33 PUSH1 0xA0 DUP4 ADD DUP6 PUSH2 0xD97 JUMP JUMPDEST PUSH2 0xE40 PUSH1 0xC0 DUP4 ADD DUP5 PUSH2 0xDB2 JUMP JUMPDEST SWAP9 SWAP8 POP POP POP POP POP POP POP POP JUMP JUMPDEST PUSH1 0x0 PUSH1 0x20 DUP3 ADD SWAP1 POP PUSH2 0xE61 PUSH1 0x0 DUP4 ADD DUP5 PUSH2 0xD97 JUMP JUMPDEST SWAP3 SWAP2 POP POP JUMP JUMPDEST PUSH1 0x0 DUP1 REVERT JUMPDEST PUSH1 0x0 DUP1 REVERT JUMPDEST PUSH1 0x0 DUP1 REVERT JUMPDEST PUSH1 0x0 DUP1 DUP4 PUSH1 0x1F DUP5 ADD SLT PUSH2 0xE8C JUMPI PUSH2 0xE8B PUSH2 0xE67 JUMP JUMPDEST JUMPDEST DUP3 CALLDATALOAD SWAP1 POP PUSH8 0xFFFFFFFFFFFFFFFF DUP2 GT ISZERO PUSH2 0xEA9 JUMPI PUSH2 0xEA8 PUSH2 0xE6C JUMP JUMPDEST JUMPDEST PUSH1 0x20 DUP4 ADD SWAP2 POP DUP4 PUSH1 0x1 DUP3 MUL DUP4 ADD GT ISZERO PUSH2 0xEC5 JUMPI PUSH2 0xEC4 PUSH2 0xE71 JUMP JUMPDEST JUMPDEST SWAP3 POP SWAP3 SWAP1 POP JUMP JUMPDEST PUSH1 0x0 DUP1 PUSH1 0x0 DUP1 PUSH1 0x0 DUP1 PUSH1 0x0 DUP1 PUSH1 0x80 DUP10 DUP12 SUB SLT ISZERO PUSH2 0xEEC JUMPI PUSH2 0xEEB PUSH2 0xC59 JUMP JUMPDEST JUMPDEST PUSH1 0x0 DUP10 ADD CALLDATALOAD PUSH8 0xFFFFFFFFFFFFFFFF DUP2 GT ISZERO PUSH2 0xF0A JUMPI PUSH2 0xF09 PUSH2 0xC5E JUMP JUMPDEST JUMPDEST PUSH2 0xF16 DUP12 DUP3 DUP13 ADD PUSH2 0xE76 JUMP JUMPDEST SWAP9 POP SWAP9 POP POP PUSH1 0x20 DUP10 ADD CALLDATALOAD PUSH8 0xFFFFFFFFFFFFFFFF DUP2 GT ISZERO PUSH2 0xF39 JUMPI PUSH2 0xF38 PUSH2 0xC5E JUMP JUMPDEST JUMPDEST PUSH2 0xF45 DUP12 DUP3 DUP13 ADD PUSH2 0xE76 JUMP JUMPDEST SWAP7 POP SWAP7 POP POP PUSH1 0x40 DUP10 ADD CALLDATALOAD PUSH8 0xFFFFFFFFFFFFFFFF DUP2 GT ISZERO PUSH2 0xF68 JUMPI PUSH2 0xF67 PUSH2 0xC5E JUMP JUMPDEST JUMPDEST PUSH2 0xF74 DUP12 DUP3 DUP13 ADD PUSH2 0xE76 JUMP JUMPDEST SWAP5 POP SWAP5 POP POP PUSH1 0x60 DUP10 ADD CALLDATALOAD PUSH8 0xFFFFFFFFFFFFFFFF DUP2 GT ISZERO PUSH2 0xF97 JUMPI PUSH2 0xF96 PUSH2 0xC5E JUMP JUMPDEST JUMPDEST PUSH2 0xFA3 DUP12 DUP3 DUP13 ADD PUSH2 0xE76 JUMP JUMPDEST SWAP3 POP SWAP3 POP POP SWAP3 SWAP6 SWAP9 POP SWAP3 SWAP6 SWAP9 SWAP1 SWAP4 SWAP7 POP JUMP JUMPDEST PUSH32 0x4E487B7100000000000000000000000000000000000000000000000000000000 PUSH1 0x0 MSTORE PUSH1 0x22 PUSH1 0x4 MSTORE PUSH1 0x24 PUSH1 0x0 REVERT JUMPDEST PUSH1 0x0 PUSH1 0x2 DUP3 DIV SWAP1 POP PUSH1 0x1 DUP3 AND DUP1 PUSH2 0xFFC JUMPI PUSH1 0x7F DUP3 AND SWAP2 POP JUMPDEST PUSH1 0x20 DUP3 LT DUP2 SUB PUSH2 0x100F JUMPI PUSH2 0x100E PUSH2 0xFB5 JUMP JUMPDEST JUMPDEST POP SWAP2 SWAP1 POP JUMP JUMPDEST PUSH32 0x596F7520646F206E6F742068617665207065726D697373696F6E000000000000 PUSH1 0x0 DUP3 ADD MSTORE POP JUMP JUMPDEST PUSH1 0x0 PUSH2 0x104B PUSH1 0x1A DUP4 PUSH2 0xD12 JUMP JUMPDEST SWAP2 POP PUSH2 0x1056 DUP3 PUSH2 0x1015 JUMP JUMPDEST PUSH1 0x20 DUP3 ADD SWAP1 POP SWAP2 SWAP1 POP JUMP JUMPDEST PUSH1 0x0 PUSH1 0x20 DUP3 ADD SWAP1 POP DUP2 DUP2 SUB PUSH1 0x0 DUP4 ADD MSTORE PUSH2 0x107A DUP2 PUSH2 0x103E JUMP JUMPDEST SWAP1 POP SWAP2 SWAP1 POP JUMP JUMPDEST PUSH32 0x546869732063616D706169676E20697320636C6F736564000000000000000000 PUSH1 0x0 DUP3 ADD MSTORE POP JUMP JUMPDEST PUSH1 0x0 PUSH2 0x10B7 PUSH1 0x17 DUP4 PUSH2 0xD12 JUMP JUMPDEST SWAP2 POP PUSH2 0x10C2 DUP3 PUSH2 0x1081 JUMP JUMPDEST PUSH1 0x20 DUP3 ADD SWAP1 POP SWAP2 SWAP1 POP JUMP JUMPDEST PUSH1 0x0 PUSH1 0x20 DUP3 ADD SWAP1 POP DUP2 DUP2 SUB PUSH1 0x0 DUP4 ADD MSTORE PUSH2 0x10E6 DUP2 PUSH2 0x10AA JUMP JUMPDEST SWAP1 POP SWAP2 SWAP1 POP JUMP JUMPDEST PUSH32 0x546869732063616D706169676E20646F206E6F74206861766520656E6F756768 PUSH1 0x0 DUP3 ADD MSTORE PUSH32 0x2062616C616E6365000000000000000000000000000000000000000000000000 PUSH1 0x20 DUP3 ADD MSTORE POP JUMP JUMPDEST PUSH1 0x0 PUSH2 0x1149 PUSH1 0x28 DUP4 PUSH2 0xD12 JUMP JUMPDEST SWAP2 POP PUSH2 0x1154 DUP3 PUSH2 0x10ED JUMP JUMPDEST PUSH1 0x40 DUP3 ADD SWAP1 POP SWAP2 SWAP1 POP JUMP JUMPDEST PUSH1 0x0 PUSH1 0x20 DUP3 ADD SWAP1 POP DUP2 DUP2 SUB PUSH1 0x0 DUP4 ADD MSTORE PUSH2 0x1178 DUP2 PUSH2 0x113C JUMP JUMPDEST SWAP1 POP SWAP2 SWAP1 POP JUMP JUMPDEST PUSH32 0x4E487B7100000000000000000000000000000000000000000000000000000000 PUSH1 0x0 MSTORE PUSH1 0x11 PUSH1 0x4 MSTORE PUSH1 0x24 PUSH1 0x0 REVERT JUMPDEST PUSH1 0x0 PUSH2 0x11B9 DUP3 PUSH2 0xC63 JUMP JUMPDEST SWAP2 POP PUSH2 0x11C4 DUP4 PUSH2 0xC63 JUMP JUMPDEST SWAP3 POP DUP3 DUP3 SUB SWAP1 POP DUP2 DUP2 GT ISZERO PUSH2 0x11DC JUMPI PUSH2 0x11DB PUSH2 0x117F JUMP JUMPDEST JUMPDEST SWAP3 SWAP2 POP POP JUMP JUMPDEST PUSH1 0x0 DUP2 SWAP1 POP SWAP3 SWAP2 POP POP JUMP JUMPDEST POP JUMP JUMPDEST PUSH1 0x0 PUSH2 0x11FD PUSH1 0x0 DUP4 PUSH2 0x11E2 JUMP JUMPDEST SWAP2 POP PUSH2 0x1208 DUP3 PUSH2 0x11ED JUMP JUMPDEST PUSH1 0x0 DUP3 ADD SWAP1 POP SWAP2 SWAP1 POP JUMP JUMPDEST PUSH1 0x0 PUSH2 0x121E DUP3 PUSH2 0x11F0 JUMP JUMPDEST SWAP2 POP DUP2 SWAP1 POP SWAP2 SWAP1 POP JUMP JUMPDEST PUSH1 0x0 PUSH2 0x1233 DUP3 PUSH2 0xC63 JUMP JUMPDEST SWAP2 POP PUSH32 0xFFFFFFFFFFFFFFFFFFFFFFFFFFFFFFFFFFFFFFFFFFFFFFFFFFFFFFFFFFFFFFFF DUP3 SUB PUSH2 0x1265 JUMPI PUSH2 0x1264 PUSH2 0x117F JUMP JUMPDEST JUMPDEST PUSH1 0x1 DUP3 ADD SWAP1 POP SWAP2 SWAP1 POP JUMP JUMPDEST PUSH32 0x4E487B7100000000000000000000000000000000000000000000000000000000 PUSH1 0x0 MSTORE PUSH1 0x41 PUSH1 0x4 MSTORE PUSH1 0x24 PUSH1 0x0 REVERT JUMPDEST PUSH1 0x0 DUP2 SWAP1 POP DUP2 PUSH1 0x0 MSTORE PUSH1 0x20 PUSH1 0x0 KECCAK256 SWAP1 POP SWAP2 SWAP1 POP JUMP JUMPDEST PUSH1 0x0 PUSH1 0x20 PUSH1 0x1F DUP4 ADD DIV SWAP1 POP SWAP2 SWAP1 POP JUMP JUMPDEST PUSH1 0x0 DUP3 DUP3 SHL SWAP1 POP SWAP3 SWAP2 POP POP JUMP JUMPDEST PUSH1 0x0 PUSH1 0x8 DUP4 MUL PUSH2 0x1301 PUSH32 0xFFFFFFFFFFFFFFFFFFFFFFFFFFFFFFFFFFFFFFFFFFFFFFFFFFFFFFFFFFFFFFFF DUP3 PUSH2 0x12C4 JUMP JUMPDEST PUSH2 0x130B DUP7 DUP4 PUSH2 0x12C4 JUMP JUMPDEST SWAP6 POP DUP1 NOT DUP5 AND SWAP4 POP DUP1 DUP7 AND DUP5 OR SWAP3 POP POP POP SWAP4 SWAP3 POP POP POP JUMP JUMPDEST PUSH1 0x0 DUP2 SWAP1 POP SWAP2 SWAP1 POP JUMP JUMPDEST PUSH1 0x0 PUSH2 0x1348 PUSH2 0x1343 PUSH2 0x133E DUP5 PUSH2 0xC63 JUMP JUMPDEST PUSH2 0x1323 JUMP JUMPDEST PUSH2 0xC63 JUMP JUMPDEST SWAP1 POP SWAP2 SWAP1 POP JUMP JUMPDEST PUSH1 0x0 DUP2 SWAP1 POP SWAP2 SWAP1 POP JUMP JUMPDEST PUSH2 0x1362 DUP4 PUSH2 0x132D JUMP JUMPDEST PUSH2 0x1376 PUSH2 0x136E DUP3 PUSH2 0x134F JUMP JUMPDEST DUP5 DUP5 SLOAD PUSH2 0x12D1 JUMP JUMPDEST DUP3 SSTORE POP POP POP POP JUMP JUMPDEST PUSH1 0x0 SWAP1 JUMP JUMPDEST PUSH2 0x138B PUSH2 0x137E JUMP JUMPDEST PUSH2 0x1396 DUP2 DUP5 DUP5 PUSH2 0x1359 JUMP JUMPDEST POP POP POP JUMP JUMPDEST JUMPDEST DUP2 DUP2 LT ISZERO PUSH2 0x13BA JUMPI PUSH2 0x13AF PUSH1 0x0 DUP3 PUSH2 0x1383 JUMP JUMPDEST PUSH1 0x1 DUP2 ADD SWAP1 POP PUSH2 0x139C JUMP JUMPDEST POP POP JUMP JUMPDEST PUSH1 0x1F DUP3 GT ISZERO PUSH2 0x13FF JUMPI PUSH2 0x13D0 DUP2 PUSH2 0x129F JUMP JUMPDEST PUSH2 0x13D9 DUP5 PUSH2 0x12B4 JUMP JUMPDEST DUP2 ADD PUSH1 0x20 DUP6 LT ISZERO PUSH2 0x13E8 JUMPI DUP2 SWAP1 POP JUMPDEST PUSH2 0x13FC PUSH2 0x13F4 DUP6 PUSH2 0x12B4 JUMP JUMPDEST DUP4 ADD DUP3 PUSH2 0x139B JUMP JUMPDEST POP POP JUMPDEST POP POP POP JUMP JUMPDEST PUSH1 0x0 DUP3 DUP3 SHR SWAP1 POP SWAP3 SWAP2 POP POP JUMP JUMPDEST PUSH1 0x0 PUSH2 0x1422 PUSH1 0x0 NOT DUP5 PUSH1 0x8 MUL PUSH2 0x1404 JUMP JUMPDEST NOT DUP1 DUP4 AND SWAP2 POP POP SWAP3 SWAP2 POP POP JUMP JUMPDEST PUSH1 0x0 PUSH2 0x143B DUP4 DUP4 PUSH2 0x1411 JUMP JUMPDEST SWAP2 POP DUP3 PUSH1 0x2 MUL DUP3 OR SWAP1 POP SWAP3 SWAP2 POP POP JUMP JUMPDEST PUSH2 0x1454 DUP3 PUSH2 0xD07 JUMP JUMPDEST PUSH8 0xFFFFFFFFFFFFFFFF DUP2 GT ISZERO PUSH2 0x146D JUMPI PUSH2 0x146C PUSH2 0x1270 JUMP JUMPDEST JUMPDEST PUSH2 0x1477 DUP3 SLOAD PUSH2 0xFE4 JUMP JUMPDEST PUSH2 0x1482 DUP3 DUP3 DUP6 PUSH2 0x13BE JUMP JUMPDEST PUSH1 0x0 PUSH1 0x20 SWAP1 POP PUSH1 0x1F DUP4 GT PUSH1 0x1 DUP2 EQ PUSH2 0x14B5 JUMPI PUSH1 0x0 DUP5 ISZERO PUSH2 0x14A3 JUMPI DUP3 DUP8 ADD MLOAD SWAP1 POP JUMPDEST PUSH2 0x14AD DUP6 DUP3 PUSH2 0x142F JUMP JUMPDEST DUP7 SSTORE POP PUSH2 0x1515 JUMP JUMPDEST PUSH1 0x1F NOT DUP5 AND PUSH2 0x14C3 DUP7 PUSH2 0x129F JUMP JUMPDEST PUSH1 0x0 JUMPDEST DUP3 DUP2 LT ISZERO PUSH2 0x14EB JUMPI DUP5 DUP10 ADD MLOAD DUP3 SSTORE PUSH1 0x1 DUP3 ADD SWAP2 POP PUSH1 0x20 DUP6 ADD SWAP5 POP PUSH1 0x20 DUP2 ADD SWAP1 POP PUSH2 0x14C6 JUMP JUMPDEST DUP7 DUP4 LT ISZERO PUSH2 0x1508 JUMPI DUP5 DUP10 ADD MLOAD PUSH2 0x1504 PUSH1 0x1F DUP10 AND DUP3 PUSH2 0x1411 JUMP JUMPDEST DUP4 SSTORE POP JUMPDEST PUSH1 0x1 PUSH1 0x2 DUP9 MUL ADD DUP9 SSTORE POP POP POP JUMPDEST POP POP POP POP POP POP JUMP JUMPDEST PUSH32 0x596F75206D7573742073656E64206120646F6E6174696F6E2076616C7565203E PUSH1 0x0 DUP3 ADD MSTORE PUSH32 0x2030000000000000000000000000000000000000000000000000000000000000 PUSH1 0x20 DUP3 ADD MSTORE POP JUMP JUMPDEST PUSH1 0x0 PUSH2 0x1579 PUSH1 0x22 DUP4 PUSH2 0xD12 JUMP JUMPDEST SWAP2 POP PUSH2 0x1584 DUP3 PUSH2 0x151D JUMP JUMPDEST PUSH1 0x40 DUP3 ADD SWAP1 POP SWAP2 SWAP1 POP JUMP JUMPDEST PUSH1 0x0 PUSH1 0x20 DUP3 ADD SWAP1 POP DUP2 DUP2 SUB PUSH1 0x0 DUP4 ADD MSTORE PUSH2 0x15A8 DUP2 PUSH2 0x156C JUMP JUMPDEST SWAP1 POP SWAP2 SWAP1 POP JUMP JUMPDEST PUSH32 0x43616E6E6F7420646F6E61746520746F20746869732063616D70696E67000000 PUSH1 0x0 DUP3 ADD MSTORE POP JUMP JUMPDEST PUSH1 0x0 PUSH2 0x15E5 PUSH1 0x1D DUP4 PUSH2 0xD12 JUMP JUMPDEST SWAP2 POP PUSH2 0x15F0 DUP3 PUSH2 0x15AF JUMP JUMPDEST PUSH1 0x20 DUP3 ADD SWAP1 POP SWAP2 SWAP1 POP JUMP JUMPDEST PUSH1 0x0 PUSH1 0x20 DUP3 ADD SWAP1 POP DUP2 DUP2 SUB PUSH1 0x0 DUP4 ADD MSTORE PUSH2 0x1614 DUP2 PUSH2 0x15D8 JUMP JUMPDEST SWAP1 POP SWAP2 SWAP1 POP JUMP JUMPDEST PUSH1 0x0 PUSH2 0x1626 DUP3 PUSH2 0xC63 JUMP JUMPDEST SWAP2 POP PUSH2 0x1631 DUP4 PUSH2 0xC63 JUMP JUMPDEST SWAP3 POP DUP3 DUP3 ADD SWAP1 POP DUP1 DUP3 GT ISZERO PUSH2 0x1649 JUMPI PUSH2 0x1648 PUSH2 0x117F JUMP JUMPDEST JUMPDEST SWAP3 SWAP2 POP POP JUMP INVALID LOG2 PUSH5 0x6970667358 0x22 SLT KECCAK256 0xD8 PUSH2 0xFC4 CALLDATACOPY BASEFEE SWAP1 SWAP7 MLOAD 0xD3 EXP 0x5C 0xFB 0xC6 0xFC 0xC7 BLOCKHASH 0xFC PUSH5 0x5B2A8E2F6F 0xAD PUSH13 0x961F9C94214864736F6C634300 ADDMOD SLT STOP CALLER "
				},
				"gasEstimates": {
					"creation": {
						"codeDepositCost": "1153000",
						"executionCost": "28312",
						"totalCost": "1181312"
					},
					"external": {
						"addCampaign(string,string,string,string)": "infinite",
						"campaigns(uint256)": "infinite",
						"donate(uint256)": "infinite",
						"fee()": "2473",
						"nextId()": "2451",
						"withdraw(uint256)": "infinite"
					}
				},
				"methodIdentifiers": {
					"addCampaign(string,string,string,string)": "ec671486",
					"campaigns(uint256)": "141961bc",
					"donate(uint256)": "f14faf6f",
					"fee()": "ddca3f43",
					"nextId()": "61b8ce8c",
					"withdraw(uint256)": "2e1a7d4d"
				}
			},
			"storageLayout": {
				"storage": [
					{
						"astId": 19,
						"contract": "contracts/DonateCrypto.sol:DonateCryto",
						"label": "fee",
						"offset": 0,
						"slot": "0",
						"type": "t_uint256"
					},
					{
						"astId": 22,
						"contract": "contracts/DonateCrypto.sol:DonateCryto",
						"label": "nextId",
						"offset": 0,
						"slot": "1",
						"type": "t_uint256"
					},
					{
						"astId": 27,
						"contract": "contracts/DonateCrypto.sol:DonateCryto",
						"label": "campaigns",
						"offset": 0,
						"slot": "2",
						"type": "t_mapping(t_uint256,t_struct(Campaign)16_storage)"
					}
				],
				"types": {
					"t_address": {
						"encoding": "inplace",
						"label": "address",
						"numberOfBytes": "20"
					},
					"t_bool": {
						"encoding": "inplace",
						"label": "bool",
						"numberOfBytes": "1"
					},
					"t_mapping(t_uint256,t_struct(Campaign)16_storage)": {
						"encoding": "mapping",
						"key": "t_uint256",
						"label": "mapping(uint256 => struct Campaign)",
						"numberOfBytes": "32",
						"value": "t_struct(Campaign)16_storage"
					},
					"t_string_storage": {
						"encoding": "bytes",
						"label": "string",
						"numberOfBytes": "32"
					},
					"t_struct(Campaign)16_storage": {
						"encoding": "inplace",
						"label": "struct Campaign",
						"members": [
							{
								"astId": 3,
								"contract": "contracts/DonateCrypto.sol:DonateCryto",
								"label": "author",
								"offset": 0,
								"slot": "0",
								"type": "t_address"
							},
							{
								"astId": 5,
								"contract": "contracts/DonateCrypto.sol:DonateCryto",
								"label": "title",
								"offset": 0,
								"slot": "1",
								"type": "t_string_storage"
							},
							{
								"astId": 7,
								"contract": "contracts/DonateCrypto.sol:DonateCryto",
								"label": "description",
								"offset": 0,
								"slot": "2",
								"type": "t_string_storage"
							},
							{
								"astId": 9,
								"contract": "contracts/DonateCrypto.sol:DonateCryto",
								"label": "videoUrl",
								"offset": 0,
								"slot": "3",
								"type": "t_string_storage"
							},
							{
								"astId": 11,
								"contract": "contracts/DonateCrypto.sol:DonateCryto",
								"label": "imageUrl",
								"offset": 0,
								"slot": "4",
								"type": "t_string_storage"
							},
							{
								"astId": 13,
								"contract": "contracts/DonateCrypto.sol:DonateCryto",
								"label": "balance",
								"offset": 0,
								"slot": "5",
								"type": "t_uint256"
							},
							{
								"astId": 15,
								"contract": "contracts/DonateCrypto.sol:DonateCryto",
								"label": "active",
								"offset": 0,
								"slot": "6",
								"type": "t_bool"
							}
						],
						"numberOfBytes": "224"
					},
					"t_uint256": {
						"encoding": "inplace",
						"label": "uint256",
						"numberOfBytes": "32"
					}
				}
			},
			"userdoc": {
				"kind": "user",
				"methods": {},
				"version": 1
			}
		}
	}
}